{
  "contractName": "NftImage",
  "abi": [
    {
      "inputs": [],
      "stateMutability": "nonpayable",
      "type": "constructor"
    },
    {
      "anonymous": false,
      "inputs": [
        {
          "indexed": true,
          "internalType": "address",
          "name": "owner",
          "type": "address"
        },
        {
          "indexed": true,
          "internalType": "address",
          "name": "approved",
          "type": "address"
        },
        {
          "indexed": true,
          "internalType": "uint256",
          "name": "tokenId",
          "type": "uint256"
        }
      ],
      "name": "Approval",
      "type": "event"
    },
    {
      "anonymous": false,
      "inputs": [
        {
          "indexed": true,
          "internalType": "address",
          "name": "owner",
          "type": "address"
        },
        {
          "indexed": true,
          "internalType": "address",
          "name": "operator",
          "type": "address"
        },
        {
          "indexed": false,
          "internalType": "bool",
          "name": "approved",
          "type": "bool"
        }
      ],
      "name": "ApprovalForAll",
      "type": "event"
    },
    {
      "anonymous": false,
      "inputs": [
        {
          "indexed": true,
          "internalType": "address",
          "name": "from",
          "type": "address"
        },
        {
          "indexed": true,
          "internalType": "address",
          "name": "to",
          "type": "address"
        },
        {
          "indexed": true,
          "internalType": "uint256",
          "name": "tokenId",
          "type": "uint256"
        }
      ],
      "name": "Transfer",
      "type": "event"
    },
    {
      "anonymous": false,
      "inputs": [
        {
          "indexed": false,
          "internalType": "uint256",
          "name": "id",
          "type": "uint256"
        },
        {
          "indexed": false,
          "internalType": "uint256",
          "name": "price",
          "type": "uint256"
        }
      ],
      "name": "imagePutUpForSale",
      "type": "event"
    },
    {
      "inputs": [
        {
          "internalType": "address",
          "name": "to",
          "type": "address"
        },
        {
          "internalType": "uint256",
          "name": "tokenId",
          "type": "uint256"
        }
      ],
      "name": "approve",
      "outputs": [],
      "stateMutability": "nonpayable",
      "type": "function"
    },
    {
      "inputs": [
        {
          "internalType": "address",
          "name": "owner",
          "type": "address"
        }
      ],
      "name": "balanceOf",
      "outputs": [
        {
          "internalType": "uint256",
          "name": "",
          "type": "uint256"
        }
      ],
      "stateMutability": "view",
      "type": "function",
      "constant": true
    },
    {
      "inputs": [
        {
          "internalType": "uint256",
          "name": "tokenId",
          "type": "uint256"
        }
      ],
      "name": "getApproved",
      "outputs": [
        {
          "internalType": "address",
          "name": "",
          "type": "address"
        }
      ],
      "stateMutability": "view",
      "type": "function",
      "constant": true
    },
    {
      "inputs": [],
      "name": "imageCount",
      "outputs": [
        {
          "internalType": "uint256",
          "name": "",
          "type": "uint256"
        }
      ],
      "stateMutability": "view",
      "type": "function",
      "constant": true
    },
    {
      "inputs": [
        {
          "internalType": "uint256",
          "name": "",
          "type": "uint256"
        }
      ],
      "name": "images",
      "outputs": [
        {
          "internalType": "uint256",
          "name": "id",
          "type": "uint256"
        },
        {
          "internalType": "string",
          "name": "hash",
          "type": "string"
        },
        {
          "internalType": "string",
          "name": "description",
          "type": "string"
        },
        {
          "internalType": "bool",
          "name": "isForSale",
          "type": "bool"
        },
        {
          "internalType": "uint256",
          "name": "price",
          "type": "uint256"
        }
      ],
      "stateMutability": "view",
      "type": "function",
      "constant": true
    },
    {
      "inputs": [
        {
          "internalType": "address",
          "name": "owner",
          "type": "address"
        },
        {
          "internalType": "address",
          "name": "operator",
          "type": "address"
        }
      ],
      "name": "isApprovedForAll",
      "outputs": [
        {
          "internalType": "bool",
          "name": "",
          "type": "bool"
        }
      ],
      "stateMutability": "view",
      "type": "function",
      "constant": true
    },
    {
      "inputs": [],
      "name": "name",
      "outputs": [
        {
          "internalType": "string",
          "name": "",
          "type": "string"
        }
      ],
      "stateMutability": "view",
      "type": "function",
      "constant": true
    },
    {
      "inputs": [
        {
          "internalType": "uint256",
          "name": "tokenId",
          "type": "uint256"
        }
      ],
      "name": "ownerOf",
      "outputs": [
        {
          "internalType": "address",
          "name": "",
          "type": "address"
        }
      ],
      "stateMutability": "view",
      "type": "function",
      "constant": true
    },
    {
      "inputs": [
        {
          "internalType": "address",
          "name": "from",
          "type": "address"
        },
        {
          "internalType": "address",
          "name": "to",
          "type": "address"
        },
        {
          "internalType": "uint256",
          "name": "tokenId",
          "type": "uint256"
        }
      ],
      "name": "safeTransferFrom",
      "outputs": [],
      "stateMutability": "nonpayable",
      "type": "function"
    },
    {
      "inputs": [
        {
          "internalType": "address",
          "name": "from",
          "type": "address"
        },
        {
          "internalType": "address",
          "name": "to",
          "type": "address"
        },
        {
          "internalType": "uint256",
          "name": "tokenId",
          "type": "uint256"
        },
        {
          "internalType": "bytes",
          "name": "_data",
          "type": "bytes"
        }
      ],
      "name": "safeTransferFrom",
      "outputs": [],
      "stateMutability": "nonpayable",
      "type": "function"
    },
    {
      "inputs": [
        {
          "internalType": "address",
          "name": "operator",
          "type": "address"
        },
        {
          "internalType": "bool",
          "name": "approved",
          "type": "bool"
        }
      ],
      "name": "setApprovalForAll",
      "outputs": [],
      "stateMutability": "nonpayable",
      "type": "function"
    },
    {
      "inputs": [
        {
          "internalType": "bytes4",
          "name": "interfaceId",
          "type": "bytes4"
        }
      ],
      "name": "supportsInterface",
      "outputs": [
        {
          "internalType": "bool",
          "name": "",
          "type": "bool"
        }
      ],
      "stateMutability": "view",
      "type": "function",
      "constant": true
    },
    {
      "inputs": [],
      "name": "symbol",
      "outputs": [
        {
          "internalType": "string",
          "name": "",
          "type": "string"
        }
      ],
      "stateMutability": "view",
      "type": "function",
      "constant": true
    },
    {
      "inputs": [
        {
          "internalType": "uint256",
          "name": "index",
          "type": "uint256"
        }
      ],
      "name": "tokenByIndex",
      "outputs": [
        {
          "internalType": "uint256",
          "name": "",
          "type": "uint256"
        }
      ],
      "stateMutability": "view",
      "type": "function",
      "constant": true
    },
    {
      "inputs": [
        {
          "internalType": "address",
          "name": "owner",
          "type": "address"
        },
        {
          "internalType": "uint256",
          "name": "index",
          "type": "uint256"
        }
      ],
      "name": "tokenOfOwnerByIndex",
      "outputs": [
        {
          "internalType": "uint256",
          "name": "",
          "type": "uint256"
        }
      ],
      "stateMutability": "view",
      "type": "function",
      "constant": true
    },
    {
      "inputs": [
        {
          "internalType": "uint256",
          "name": "tokenId",
          "type": "uint256"
        }
      ],
      "name": "tokenURI",
      "outputs": [
        {
          "internalType": "string",
          "name": "",
          "type": "string"
        }
      ],
      "stateMutability": "view",
      "type": "function",
      "constant": true
    },
    {
      "inputs": [],
      "name": "totalSupply",
      "outputs": [
        {
          "internalType": "uint256",
          "name": "",
          "type": "uint256"
        }
      ],
      "stateMutability": "view",
      "type": "function",
      "constant": true
    },
    {
      "inputs": [
        {
          "internalType": "address",
          "name": "from",
          "type": "address"
        },
        {
          "internalType": "address",
          "name": "to",
          "type": "address"
        },
        {
          "internalType": "uint256",
          "name": "tokenId",
          "type": "uint256"
        }
      ],
      "name": "transferFrom",
      "outputs": [],
      "stateMutability": "nonpayable",
      "type": "function"
    },
    {
      "inputs": [
        {
          "internalType": "string",
          "name": "_hash",
          "type": "string"
        },
        {
          "internalType": "string",
          "name": "_description",
          "type": "string"
        }
      ],
      "name": "mint",
      "outputs": [],
      "stateMutability": "nonpayable",
      "type": "function"
    }
  ],
  "bytecode": "0x60806040526000600c553480156200001657600080fd5b506040518060400160405280600881526020017f4e6674496d6167650000000000000000000000000000000000000000000000008152506040518060400160405280600881526020017f4e4654494d41474500000000000000000000000000000000000000000000000081525081600090805190602001906200009b929190620000bd565b508060019080519060200190620000b4929190620000bd565b505050620001d2565b828054620000cb906200016d565b90600052602060002090601f016020900481019282620000ef57600085556200013b565b82601f106200010a57805160ff19168380011785556200013b565b828001600101855582156200013b579182015b828111156200013a5782518255916020019190600101906200011d565b5b5090506200014a91906200014e565b5090565b5b80821115620001695760008160009055506001016200014f565b5090565b600060028204905060018216806200018657607f821691505b602082108114156200019d576200019c620001a3565b5b50919050565b7f4e487b7100000000000000000000000000000000000000000000000000000000600052602260045260246000fd5b61343e80620001e26000396000f3fe608060405234801561001057600080fd5b50600436106101215760003560e01c80636352211e116100ad57806395d89b411161007157806395d89b4114610344578063a22cb46514610362578063b88d4fde1461037e578063c87b56dd1461039a578063e985e9c5146103ca57610121565b80636352211e1461027657806370a08231146102a657806384856482146102d65780638aa0fdad1461030a57806392053b631461032657610121565b806318160ddd116100f457806318160ddd146101c057806323b872dd146101de5780632f745c59146101fa57806342842e0e1461022a5780634f6ccce71461024657610121565b806301ffc9a71461012657806306fdde0314610156578063081812fc14610174578063095ea7b3146101a4575b600080fd5b610140600480360381019061013b9190612468565b6103fa565b60405161014d9190612d15565b60405180910390f35b61015e610474565b60405161016b9190612d30565b60405180910390f35b61018e60048036038101906101899190612526565b610506565b60405161019b9190612cae565b60405180910390f35b6101be60048036038101906101b9919061242c565b61058b565b005b6101c86106a3565b6040516101d59190612f72565b60405180910390f35b6101f860048036038101906101f39190612326565b6106b0565b005b610214600480360381019061020f919061242c565b610710565b6040516102219190612f72565b60405180910390f35b610244600480360381019061023f9190612326565b6107b5565b005b610260600480360381019061025b9190612526565b6107d5565b60405161026d9190612f72565b60405180910390f35b610290600480360381019061028b9190612526565b61086c565b60405161029d9190612cae565b60405180910390f35b6102c060048036038101906102bb91906122c1565b61091e565b6040516102cd9190612f72565b60405180910390f35b6102f060048036038101906102eb9190612526565b6109d6565b604051610301959493929190612f8d565b60405180910390f35b610324600480360381019061031f91906124ba565b610b39565b005b61032e610cda565b60405161033b9190612f72565b60405180910390f35b61034c610ce0565b6040516103599190612d30565b60405180910390f35b61037c600480360381019061037791906123f0565b610d72565b005b61039860048036038101906103939190612375565b610ef3565b005b6103b460048036038101906103af9190612526565b610f55565b6040516103c19190612d30565b60405180910390f35b6103e460048036038101906103df91906122ea565b610ffc565b6040516103f19190612d15565b60405180910390f35b60007f780e9d63000000000000000000000000000000000000000000000000000000007bffffffffffffffffffffffffffffffffffffffffffffffffffffffff1916827bffffffffffffffffffffffffffffffffffffffffffffffffffffffff1916148061046d575061046c82611090565b5b9050919050565b60606000805461048390613233565b80601f01602080910402602001604051908101604052809291908181526020018280546104af90613233565b80156104fc5780601f106104d1576101008083540402835291602001916104fc565b820191906000526020600020905b8154815290600101906020018083116104df57829003601f168201915b5050505050905090565b600061051182611172565b610550576040517f08c379a000000000000000000000000000000000000000000000000000000000815260040161054790612e92565b60405180910390fd5b6004600083815260200190815260200160002060009054906101000a900473ffffffffffffffffffffffffffffffffffffffff169050919050565b60006105968261086c565b90508073ffffffffffffffffffffffffffffffffffffffff168373ffffffffffffffffffffffffffffffffffffffff161415610607576040517f08c379a00000000000000000000000000000000000000000000000000000000081526004016105fe90612ef2565b60405180910390fd5b8073ffffffffffffffffffffffffffffffffffffffff166106266111de565b73ffffffffffffffffffffffffffffffffffffffff16148061065557506106548161064f6111de565b610ffc565b5b610694576040517f08c379a000000000000000000000000000000000000000000000000000000000815260040161068b90612e12565b60405180910390fd5b61069e83836111e6565b505050565b6000600880549050905090565b6106c16106bb6111de565b8261129f565b610700576040517f08c379a00000000000000000000000000000000000000000000000000000000081526004016106f790612f32565b60405180910390fd5b61070b83838361137d565b505050565b600061071b8361091e565b821061075c576040517f08c379a000000000000000000000000000000000000000000000000000000000815260040161075390612d52565b60405180910390fd5b600660008473ffffffffffffffffffffffffffffffffffffffff1673ffffffffffffffffffffffffffffffffffffffff168152602001908152602001600020600083815260200190815260200160002054905092915050565b6107d083838360405180602001604052806000815250610ef3565b505050565b60006107df6106a3565b8210610820576040517f08c379a000000000000000000000000000000000000000000000000000000000815260040161081790612f52565b60405180910390fd5b6008828154811061085a577f4e487b7100000000000000000000000000000000000000000000000000000000600052603260045260246000fd5b90600052602060002001549050919050565b6000806002600084815260200190815260200160002060009054906101000a900473ffffffffffffffffffffffffffffffffffffffff169050600073ffffffffffffffffffffffffffffffffffffffff168173ffffffffffffffffffffffffffffffffffffffff161415610915576040517f08c379a000000000000000000000000000000000000000000000000000000000815260040161090c90612e52565b60405180910390fd5b80915050919050565b60008073ffffffffffffffffffffffffffffffffffffffff168273ffffffffffffffffffffffffffffffffffffffff16141561098f576040517f08c379a000000000000000000000000000000000000000000000000000000000815260040161098690612e32565b60405180910390fd5b600360008373ffffffffffffffffffffffffffffffffffffffff1673ffffffffffffffffffffffffffffffffffffffff168152602001908152602001600020549050919050565b600b81815481106109e657600080fd5b9060005260206000209060050201600091509050806000015490806001018054610a0f90613233565b80601f0160208091040260200160405190810160405280929190818152602001828054610a3b90613233565b8015610a885780601f10610a5d57610100808354040283529160200191610a88565b820191906000526020600020905b815481529060010190602001808311610a6b57829003601f168201915b505050505090806002018054610a9d90613233565b80601f0160208091040260200160405190810160405280929190818152602001828054610ac990613233565b8015610b165780601f10610aeb57610100808354040283529160200191610b16565b820191906000526020600020905b815481529060010190602001808311610af957829003601f168201915b5050505050908060030160009054906101000a900460ff16908060040154905085565b6000825111610b4757600080fd5b600a82604051610b579190612c73565b908152602001604051809103902060009054906101000a900460ff1615610bb3576040517f08c379a0000000000000000000000000000000000000000000000000000000008152600401610baa90612f12565b60405180910390fd5b610bbf33600c546115d9565b600b6040518060a00160405280600c54815260200184815260200183815260200160001515815260200160008152509080600181540180825580915050600190039060005260206000209060050201600090919091909150600082015181600001556020820151816001019080519060200190610c3d9291906120e5565b506040820151816002019080519060200190610c5a9291906120e5565b5060608201518160030160006101000a81548160ff0219169083151502179055506080820151816004015550506001600a83604051610c999190612c73565b908152602001604051809103902060006101000a81548160ff021916908315150217905550600c6000815480929190610cd190613265565b91905055505050565b600c5481565b606060018054610cef90613233565b80601f0160208091040260200160405190810160405280929190818152602001828054610d1b90613233565b8015610d685780601f10610d3d57610100808354040283529160200191610d68565b820191906000526020600020905b815481529060010190602001808311610d4b57829003601f168201915b5050505050905090565b610d7a6111de565b73ffffffffffffffffffffffffffffffffffffffff168273ffffffffffffffffffffffffffffffffffffffff161415610de8576040517f08c379a0000000000000000000000000000000000000000000000000000000008152600401610ddf90612dd2565b60405180910390fd5b8060056000610df56111de565b73ffffffffffffffffffffffffffffffffffffffff1673ffffffffffffffffffffffffffffffffffffffff16815260200190815260200160002060008473ffffffffffffffffffffffffffffffffffffffff1673ffffffffffffffffffffffffffffffffffffffff16815260200190815260200160002060006101000a81548160ff0219169083151502179055508173ffffffffffffffffffffffffffffffffffffffff16610ea26111de565b73ffffffffffffffffffffffffffffffffffffffff167f17307eab39ab6107e8899845ad3d59bd9653f200f220920489ca2b5937696c3183604051610ee79190612d15565b60405180910390a35050565b610f04610efe6111de565b8361129f565b610f43576040517f08c379a0000000000000000000000000000000000000000000000000000000008152600401610f3a90612f32565b60405180910390fd5b610f4f848484846115f7565b50505050565b6060610f6082611172565b610f9f576040517f08c379a0000000000000000000000000000000000000000000000000000000008152600401610f9690612ed2565b60405180910390fd5b6000610fa9611653565b90506000815111610fc95760405180602001604052806000815250610ff4565b80610fd38461166a565b604051602001610fe4929190612c8a565b6040516020818303038152906040525b915050919050565b6000600560008473ffffffffffffffffffffffffffffffffffffffff1673ffffffffffffffffffffffffffffffffffffffff16815260200190815260200160002060008373ffffffffffffffffffffffffffffffffffffffff1673ffffffffffffffffffffffffffffffffffffffff16815260200190815260200160002060009054906101000a900460ff16905092915050565b60007f80ac58cd000000000000000000000000000000000000000000000000000000007bffffffffffffffffffffffffffffffffffffffffffffffffffffffff1916827bffffffffffffffffffffffffffffffffffffffffffffffffffffffff1916148061115b57507f5b5e139f000000000000000000000000000000000000000000000000000000007bffffffffffffffffffffffffffffffffffffffffffffffffffffffff1916827bffffffffffffffffffffffffffffffffffffffffffffffffffffffff1916145b8061116b575061116a82611817565b5b9050919050565b60008073ffffffffffffffffffffffffffffffffffffffff166002600084815260200190815260200160002060009054906101000a900473ffffffffffffffffffffffffffffffffffffffff1673ffffffffffffffffffffffffffffffffffffffff1614159050919050565b600033905090565b816004600083815260200190815260200160002060006101000a81548173ffffffffffffffffffffffffffffffffffffffff021916908373ffffffffffffffffffffffffffffffffffffffff160217905550808273ffffffffffffffffffffffffffffffffffffffff166112598361086c565b73ffffffffffffffffffffffffffffffffffffffff167f8c5be1e5ebec7d5bd14f71427d1e84f3dd0314c0f7b2291e5b200ac8c7c3b92560405160405180910390a45050565b60006112aa82611172565b6112e9576040517f08c379a00000000000000000000000000000000000000000000000000000000081526004016112e090612df2565b60405180910390fd5b60006112f48361086c565b90508073ffffffffffffffffffffffffffffffffffffffff168473ffffffffffffffffffffffffffffffffffffffff16148061136357508373ffffffffffffffffffffffffffffffffffffffff1661134b84610506565b73ffffffffffffffffffffffffffffffffffffffff16145b8061137457506113738185610ffc565b5b91505092915050565b8273ffffffffffffffffffffffffffffffffffffffff1661139d8261086c565b73ffffffffffffffffffffffffffffffffffffffff16146113f3576040517f08c379a00000000000000000000000000000000000000000000000000000000081526004016113ea90612eb2565b60405180910390fd5b600073ffffffffffffffffffffffffffffffffffffffff168273ffffffffffffffffffffffffffffffffffffffff161415611463576040517f08c379a000000000000000000000000000000000000000000000000000000000815260040161145a90612db2565b60405180910390fd5b61146e838383611881565b6114796000826111e6565b6001600360008573ffffffffffffffffffffffffffffffffffffffff1673ffffffffffffffffffffffffffffffffffffffff16815260200190815260200160002060008282546114c99190613149565b925050819055506001600360008473ffffffffffffffffffffffffffffffffffffffff1673ffffffffffffffffffffffffffffffffffffffff168152602001908152602001600020600082825461152091906130c2565b92505081905550816002600083815260200190815260200160002060006101000a81548173ffffffffffffffffffffffffffffffffffffffff021916908373ffffffffffffffffffffffffffffffffffffffff160217905550808273ffffffffffffffffffffffffffffffffffffffff168473ffffffffffffffffffffffffffffffffffffffff167fddf252ad1be2c89b69c2b068fc378daa952ba7f163c4a11628f55a4df523b3ef60405160405180910390a4505050565b6115f3828260405180602001604052806000815250611995565b5050565b61160284848461137d565b61160e848484846119f0565b61164d576040517f08c379a000000000000000000000000000000000000000000000000000000000815260040161164490612d72565b60405180910390fd5b50505050565b606060405180602001604052806000815250905090565b606060008214156116b2576040518060400160405280600181526020017f30000000000000000000000000000000000000000000000000000000000000008152509050611812565b600082905060005b600082146116e45780806116cd90613265565b915050600a826116dd9190613118565b91506116ba565b60008167ffffffffffffffff811115611726577f4e487b7100000000000000000000000000000000000000000000000000000000600052604160045260246000fd5b6040519080825280601f01601f1916602001820160405280156117585781602001600182028036833780820191505090505b5090505b6000851461180b576001826117719190613149565b9150600a8561178091906132ae565b603061178c91906130c2565b60f81b8183815181106117c8577f4e487b7100000000000000000000000000000000000000000000000000000000600052603260045260246000fd5b60200101907effffffffffffffffffffffffffffffffffffffffffffffffffffffffffffff1916908160001a905350600a856118049190613118565b945061175c565b8093505050505b919050565b60007f01ffc9a7000000000000000000000000000000000000000000000000000000007bffffffffffffffffffffffffffffffffffffffffffffffffffffffff1916827bffffffffffffffffffffffffffffffffffffffffffffffffffffffff1916149050919050565b61188c838383611b87565b600073ffffffffffffffffffffffffffffffffffffffff168373ffffffffffffffffffffffffffffffffffffffff1614156118cf576118ca81611b8c565b61190e565b8173ffffffffffffffffffffffffffffffffffffffff168373ffffffffffffffffffffffffffffffffffffffff161461190d5761190c8382611bd5565b5b5b600073ffffffffffffffffffffffffffffffffffffffff168273ffffffffffffffffffffffffffffffffffffffff1614156119515761194c81611d42565b611990565b8273ffffffffffffffffffffffffffffffffffffffff168273ffffffffffffffffffffffffffffffffffffffff161461198f5761198e8282611e85565b5b5b505050565b61199f8383611f04565b6119ac60008484846119f0565b6119eb576040517f08c379a00000000000000000000000000000000000000000000000000000000081526004016119e290612d72565b60405180910390fd5b505050565b6000611a118473ffffffffffffffffffffffffffffffffffffffff166120d2565b15611b7a578373ffffffffffffffffffffffffffffffffffffffff1663150b7a02611a3a6111de565b8786866040518563ffffffff1660e01b8152600401611a5c9493929190612cc9565b602060405180830381600087803b158015611a7657600080fd5b505af1925050508015611aa757506040513d601f19601f82011682018060405250810190611aa49190612491565b60015b611b2a573d8060008114611ad7576040519150601f19603f3d011682016040523d82523d6000602084013e611adc565b606091505b50600081511415611b22576040517f08c379a0000000000000000000000000000000000000000000000000000000008152600401611b1990612d72565b60405180910390fd5b805181602001fd5b63150b7a0260e01b7bffffffffffffffffffffffffffffffffffffffffffffffffffffffff1916817bffffffffffffffffffffffffffffffffffffffffffffffffffffffff191614915050611b7f565b600190505b949350505050565b505050565b6008805490506009600083815260200190815260200160002081905550600881908060018154018082558091505060019003906000526020600020016000909190919091505550565b60006001611be28461091e565b611bec9190613149565b9050600060076000848152602001908152602001600020549050818114611cd1576000600660008673ffffffffffffffffffffffffffffffffffffffff1673ffffffffffffffffffffffffffffffffffffffff168152602001908152602001600020600084815260200190815260200160002054905080600660008773ffffffffffffffffffffffffffffffffffffffff1673ffffffffffffffffffffffffffffffffffffffff168152602001908152602001600020600084815260200190815260200160002081905550816007600083815260200190815260200160002081905550505b6007600084815260200190815260200160002060009055600660008573ffffffffffffffffffffffffffffffffffffffff1673ffffffffffffffffffffffffffffffffffffffff16815260200190815260200160002060008381526020019081526020016000206000905550505050565b60006001600880549050611d569190613149565b9050600060096000848152602001908152602001600020549050600060088381548110611dac577f4e487b7100000000000000000000000000000000000000000000000000000000600052603260045260246000fd5b906000526020600020015490508060088381548110611df4577f4e487b7100000000000000000000000000000000000000000000000000000000600052603260045260246000fd5b906000526020600020018190555081600960008381526020019081526020016000208190555060096000858152602001908152602001600020600090556008805480611e69577f4e487b7100000000000000000000000000000000000000000000000000000000600052603160045260246000fd5b6001900381819060005260206000200160009055905550505050565b6000611e908361091e565b905081600660008573ffffffffffffffffffffffffffffffffffffffff1673ffffffffffffffffffffffffffffffffffffffff168152602001908152602001600020600083815260200190815260200160002081905550806007600084815260200190815260200160002081905550505050565b600073ffffffffffffffffffffffffffffffffffffffff168273ffffffffffffffffffffffffffffffffffffffff161415611f74576040517f08c379a0000000000000000000000000000000000000000000000000000000008152600401611f6b90612e72565b60405180910390fd5b611f7d81611172565b15611fbd576040517f08c379a0000000000000000000000000000000000000000000000000000000008152600401611fb490612d92565b60405180910390fd5b611fc960008383611881565b6001600360008473ffffffffffffffffffffffffffffffffffffffff1673ffffffffffffffffffffffffffffffffffffffff168152602001908152602001600020600082825461201991906130c2565b92505081905550816002600083815260200190815260200160002060006101000a81548173ffffffffffffffffffffffffffffffffffffffff021916908373ffffffffffffffffffffffffffffffffffffffff160217905550808273ffffffffffffffffffffffffffffffffffffffff16600073ffffffffffffffffffffffffffffffffffffffff167fddf252ad1be2c89b69c2b068fc378daa952ba7f163c4a11628f55a4df523b3ef60405160405180910390a45050565b600080823b905060008111915050919050565b8280546120f190613233565b90600052602060002090601f016020900481019282612113576000855561215a565b82601f1061212c57805160ff191683800117855561215a565b8280016001018555821561215a579182015b8281111561215957825182559160200191906001019061213e565b5b509050612167919061216b565b5090565b5b8082111561218457600081600090555060010161216c565b5090565b600061219b6121968461301f565b612fee565b9050828152602081018484840111156121b357600080fd5b6121be8482856131f1565b509392505050565b60006121d96121d48461304f565b612fee565b9050828152602081018484840111156121f157600080fd5b6121fc8482856131f1565b509392505050565b600081359050612213816133ac565b92915050565b600081359050612228816133c3565b92915050565b60008135905061223d816133da565b92915050565b600081519050612252816133da565b92915050565b600082601f83011261226957600080fd5b8135612279848260208601612188565b91505092915050565b600082601f83011261229357600080fd5b81356122a38482602086016121c6565b91505092915050565b6000813590506122bb816133f1565b92915050565b6000602082840312156122d357600080fd5b60006122e184828501612204565b91505092915050565b600080604083850312156122fd57600080fd5b600061230b85828601612204565b925050602061231c85828601612204565b9150509250929050565b60008060006060848603121561233b57600080fd5b600061234986828701612204565b935050602061235a86828701612204565b925050604061236b868287016122ac565b9150509250925092565b6000806000806080858703121561238b57600080fd5b600061239987828801612204565b94505060206123aa87828801612204565b93505060406123bb878288016122ac565b925050606085013567ffffffffffffffff8111156123d857600080fd5b6123e487828801612258565b91505092959194509250565b6000806040838503121561240357600080fd5b600061241185828601612204565b925050602061242285828601612219565b9150509250929050565b6000806040838503121561243f57600080fd5b600061244d85828601612204565b925050602061245e858286016122ac565b9150509250929050565b60006020828403121561247a57600080fd5b60006124888482850161222e565b91505092915050565b6000602082840312156124a357600080fd5b60006124b184828501612243565b91505092915050565b600080604083850312156124cd57600080fd5b600083013567ffffffffffffffff8111156124e757600080fd5b6124f385828601612282565b925050602083013567ffffffffffffffff81111561251057600080fd5b61251c85828601612282565b9150509250929050565b60006020828403121561253857600080fd5b6000612546848285016122ac565b91505092915050565b6125588161317d565b82525050565b6125678161318f565b82525050565b60006125788261307f565b6125828185613095565b9350612592818560208601613200565b61259b8161339b565b840191505092915050565b60006125b18261308a565b6125bb81856130a6565b93506125cb818560208601613200565b6125d48161339b565b840191505092915050565b60006125ea8261308a565b6125f481856130b7565b9350612604818560208601613200565b80840191505092915050565b600061261d602b836130a6565b91507f455243373231456e756d657261626c653a206f776e657220696e646578206f7560008301527f74206f6620626f756e64730000000000000000000000000000000000000000006020830152604082019050919050565b60006126836032836130a6565b91507f4552433732313a207472616e7366657220746f206e6f6e20455243373231526560008301527f63656976657220696d706c656d656e74657200000000000000000000000000006020830152604082019050919050565b60006126e9601c836130a6565b91507f4552433732313a20746f6b656e20616c7265616479206d696e746564000000006000830152602082019050919050565b60006127296024836130a6565b91507f4552433732313a207472616e7366657220746f20746865207a65726f2061646460008301527f72657373000000000000000000000000000000000000000000000000000000006020830152604082019050919050565b600061278f6019836130a6565b91507f4552433732313a20617070726f766520746f2063616c6c6572000000000000006000830152602082019050919050565b60006127cf602c836130a6565b91507f4552433732313a206f70657261746f7220717565727920666f72206e6f6e657860008301527f697374656e7420746f6b656e00000000000000000000000000000000000000006020830152604082019050919050565b60006128356038836130a6565b91507f4552433732313a20617070726f76652063616c6c6572206973206e6f74206f7760008301527f6e6572206e6f7220617070726f76656420666f7220616c6c00000000000000006020830152604082019050919050565b600061289b602a836130a6565b91507f4552433732313a2062616c616e636520717565727920666f7220746865207a6560008301527f726f2061646472657373000000000000000000000000000000000000000000006020830152604082019050919050565b60006129016029836130a6565b91507f4552433732313a206f776e657220717565727920666f72206e6f6e657869737460008301527f656e7420746f6b656e00000000000000000000000000000000000000000000006020830152604082019050919050565b60006129676020836130a6565b91507f4552433732313a206d696e7420746f20746865207a65726f20616464726573736000830152602082019050919050565b60006129a7602c836130a6565b91507f4552433732313a20617070726f76656420717565727920666f72206e6f6e657860008301527f697374656e7420746f6b656e00000000000000000000000000000000000000006020830152604082019050919050565b6000612a0d6029836130a6565b91507f4552433732313a207472616e73666572206f6620746f6b656e2074686174206960008301527f73206e6f74206f776e00000000000000000000000000000000000000000000006020830152604082019050919050565b6000612a73602f836130a6565b91507f4552433732314d657461646174613a2055524920717565727920666f72206e6f60008301527f6e6578697374656e7420746f6b656e00000000000000000000000000000000006020830152604082019050919050565b6000612ad96021836130a6565b91507f4552433732313a20617070726f76616c20746f2063757272656e74206f776e6560008301527f72000000000000000000000000000000000000000000000000000000000000006020830152604082019050919050565b6000612b3f6024836130a6565b91507f496d61676520776974682074686973206861736820616c72656164792065786960008301527f73747321000000000000000000000000000000000000000000000000000000006020830152604082019050919050565b6000612ba56031836130a6565b91507f4552433732313a207472616e736665722063616c6c6572206973206e6f74206f60008301527f776e6572206e6f7220617070726f7665640000000000000000000000000000006020830152604082019050919050565b6000612c0b602c836130a6565b91507f455243373231456e756d657261626c653a20676c6f62616c20696e646578206f60008301527f7574206f6620626f756e647300000000000000000000000000000000000000006020830152604082019050919050565b612c6d816131e7565b82525050565b6000612c7f82846125df565b915081905092915050565b6000612c9682856125df565b9150612ca282846125df565b91508190509392505050565b6000602082019050612cc3600083018461254f565b92915050565b6000608082019050612cde600083018761254f565b612ceb602083018661254f565b612cf86040830185612c64565b8181036060830152612d0a818461256d565b905095945050505050565b6000602082019050612d2a600083018461255e565b92915050565b60006020820190508181036000830152612d4a81846125a6565b905092915050565b60006020820190508181036000830152612d6b81612610565b9050919050565b60006020820190508181036000830152612d8b81612676565b9050919050565b60006020820190508181036000830152612dab816126dc565b9050919050565b60006020820190508181036000830152612dcb8161271c565b9050919050565b60006020820190508181036000830152612deb81612782565b9050919050565b60006020820190508181036000830152612e0b816127c2565b9050919050565b60006020820190508181036000830152612e2b81612828565b9050919050565b60006020820190508181036000830152612e4b8161288e565b9050919050565b60006020820190508181036000830152612e6b816128f4565b9050919050565b60006020820190508181036000830152612e8b8161295a565b9050919050565b60006020820190508181036000830152612eab8161299a565b9050919050565b60006020820190508181036000830152612ecb81612a00565b9050919050565b60006020820190508181036000830152612eeb81612a66565b9050919050565b60006020820190508181036000830152612f0b81612acc565b9050919050565b60006020820190508181036000830152612f2b81612b32565b9050919050565b60006020820190508181036000830152612f4b81612b98565b9050919050565b60006020820190508181036000830152612f6b81612bfe565b9050919050565b6000602082019050612f876000830184612c64565b92915050565b600060a082019050612fa26000830188612c64565b8181036020830152612fb481876125a6565b90508181036040830152612fc881866125a6565b9050612fd7606083018561255e565b612fe46080830184612c64565b9695505050505050565b6000604051905081810181811067ffffffffffffffff821117156130155761301461336c565b5b8060405250919050565b600067ffffffffffffffff82111561303a5761303961336c565b5b601f19601f8301169050602081019050919050565b600067ffffffffffffffff82111561306a5761306961336c565b5b601f19601f8301169050602081019050919050565b600081519050919050565b600081519050919050565b600082825260208201905092915050565b600082825260208201905092915050565b600081905092915050565b60006130cd826131e7565b91506130d8836131e7565b9250827fffffffffffffffffffffffffffffffffffffffffffffffffffffffffffffffff0382111561310d5761310c6132df565b5b828201905092915050565b6000613123826131e7565b915061312e836131e7565b92508261313e5761313d61330e565b5b828204905092915050565b6000613154826131e7565b915061315f836131e7565b925082821015613172576131716132df565b5b828203905092915050565b6000613188826131c7565b9050919050565b60008115159050919050565b60007fffffffff0000000000000000000000000000000000000000000000000000000082169050919050565b600073ffffffffffffffffffffffffffffffffffffffff82169050919050565b6000819050919050565b82818337600083830152505050565b60005b8381101561321e578082015181840152602081019050613203565b8381111561322d576000848401525b50505050565b6000600282049050600182168061324b57607f821691505b6020821081141561325f5761325e61333d565b5b50919050565b6000613270826131e7565b91507fffffffffffffffffffffffffffffffffffffffffffffffffffffffffffffffff8214156132a3576132a26132df565b5b600182019050919050565b60006132b9826131e7565b91506132c4836131e7565b9250826132d4576132d361330e565b5b828206905092915050565b7f4e487b7100000000000000000000000000000000000000000000000000000000600052601160045260246000fd5b7f4e487b7100000000000000000000000000000000000000000000000000000000600052601260045260246000fd5b7f4e487b7100000000000000000000000000000000000000000000000000000000600052602260045260246000fd5b7f4e487b7100000000000000000000000000000000000000000000000000000000600052604160045260246000fd5b6000601f19601f8301169050919050565b6133b58161317d565b81146133c057600080fd5b50565b6133cc8161318f565b81146133d757600080fd5b50565b6133e38161319b565b81146133ee57600080fd5b50565b6133fa816131e7565b811461340557600080fd5b5056fea2646970667358221220bdcabc3e9dc898e4a65eed05ca3293cdc61be4db55bb33e666592d466c15b5fc64736f6c63430008000033",
  "immutableReferences": {},
  "source": "// SPDX-License-Identifier: MIT\npragma solidity >=0.4.22 <0.9.0;\n\nimport \"@openzeppelin/contracts/token/ERC721/extensions/ERC721Enumerable.sol\";\nimport \"@openzeppelin/contracts/token/ERC721/IERC721Receiver.sol\";\nimport \"./NftImageListing.sol\";\n\n\ncontract NftImage is ERC721Enumerable {\n    constructor() ERC721(\"NftImage\", \"NFTIMAGE\") {}\n\n    mapping(string => bool) _hashExists;\n\n    Image[] public images;\n\n    uint256 public imageCount = 0;\n\n    struct Image {\n        uint256 id;\n        string hash;\n        string description;\n        bool isForSale;\n        uint256 price; // in WEI\n    }\n\n    modifier isOwner(uint _imageId) {\n        require(ownerOf(_imageId) == msg.sender, \"only owner can call this function\");\n        _;\n    }\n\n    // modifier to auto check valid image id\n    modifier validId(uint256 _id) {\n        require(_id >= 0 && _id < imageCount);\n        _;\n    }\n\n    event imagePutUpForSale(uint id, uint price);\n\n\n    function mint(string memory _hash, string memory _description) public {\n        // make sure hash exists\n        require(bytes(_hash).length > 0);\n\n\n        // make sure an image with this hash doesn't already exist\n        require(!_hashExists[_hash], \"Image with this hash already exists!\");\n\n        // mint this nft and assign it to the sender\n        _safeMint(msg.sender, imageCount);\n\n        // track the image\n        images.push(Image(imageCount, _hash, _description, false, 0));\n        _hashExists[_hash] = true;\n\n        // increase total image count\n        imageCount++;\n    }\n\n    // function putImageUpForSale(uint _imageId, uint _price, address _address) validId(_imageId) isOwner(_imageId) public {\n    //     NftImageListing candidateContract = NftImageListing(_address);\n\n    //     Image memory img = images[_imageId];\n\n    //     // make sure the image isn't already for sale\n    //     require(!img.isForSale, \"Image is already for sale!\");\n\n    //     // add this contract as approved\n    //     approve(address(this), _imageId);\n\n    //     // set the image price, isForSale = true\n    //     img.price = _price;\n    //     img.isForSale = true;\n\n    //     // put it back in the list\n    //     images[_imageId] = img;\n\n    //     // emit imagePutUpForSale\n    //     emit imagePutUpForSale(_imageId, _price);\n    // }\n\n    // function buyImage(uint _imageId) validId(_imageId) public payable {\n    //     // make sure image is on sale\n    //     Image memory img = images[_imageId];\n    //     require(img.isForSale, \"Trying to buy an image that's not on sale!\");\n\n    //     // make sure msg.sender isn't the current owner\n    //     address payable owner = payable(ownerOf(_imageId));\n    //     require(owner != msg.sender, \"Trying to buy an image you already own!\");\n\n    //     // make sure msg.value is == image.price\n    //     require(msg.value >= img.price);\n\n    //     // transfer msg.value to img owner\n    //     owner.transfer(msg.value);\n\n    //     // make sure this contract is approved on this token **TO REMOVE **\n    //     require(getApproved(_imageId) == address(this), \"Contract isn't set as approved!\");\n\n    //     // transfer image from owner to new owner (also clear's contract's approval)\n    //     safeTransferFrom(owner, msg.sender, _imageId);\n\n    //     // set image back to not on sale\n    //     img.isForSale = false;\n    //     images[_imageId] = img;\n    // }\n}\n",
  "sourcePath": "/home/gary/Documents/shopifty/src/contracts/NftImage.sol",
  "compiler": {
    "name": "solc",
    "version": "0.8.0+commit.c7dfd78e.Emscripten.clang"
  },
  "schemaVersion": "3.4.1",
  "updatedAt": "2021-05-09T03:43:08.725Z",
  "networkType": "ethereum",
  "devdoc": {
    "kind": "dev",
    "methods": {
      "approve(address,uint256)": {
        "details": "See {IERC721-approve}."
      },
      "balanceOf(address)": {
        "details": "See {IERC721-balanceOf}."
      },
      "getApproved(uint256)": {
        "details": "See {IERC721-getApproved}."
      },
      "isApprovedForAll(address,address)": {
        "details": "See {IERC721-isApprovedForAll}."
      },
      "name()": {
        "details": "See {IERC721Metadata-name}."
      },
      "ownerOf(uint256)": {
        "details": "See {IERC721-ownerOf}."
      },
      "safeTransferFrom(address,address,uint256)": {
        "details": "See {IERC721-safeTransferFrom}."
      },
      "safeTransferFrom(address,address,uint256,bytes)": {
        "details": "See {IERC721-safeTransferFrom}."
      },
      "setApprovalForAll(address,bool)": {
        "details": "See {IERC721-setApprovalForAll}."
      },
      "supportsInterface(bytes4)": {
        "details": "See {IERC165-supportsInterface}."
      },
      "symbol()": {
        "details": "See {IERC721Metadata-symbol}."
      },
      "tokenByIndex(uint256)": {
        "details": "See {IERC721Enumerable-tokenByIndex}."
      },
      "tokenOfOwnerByIndex(address,uint256)": {
        "details": "See {IERC721Enumerable-tokenOfOwnerByIndex}."
      },
      "tokenURI(uint256)": {
        "details": "See {IERC721Metadata-tokenURI}."
      },
      "totalSupply()": {
        "details": "See {IERC721Enumerable-totalSupply}."
      },
      "transferFrom(address,address,uint256)": {
        "details": "See {IERC721-transferFrom}."
      }
    },
    "version": 1
  },
  "userdoc": {
    "kind": "user",
    "methods": {},
    "version": 1
  }
}