{
  "contractName": "NftImageListing",
  "abi": [
    {
      "inputs": [
        {
          "internalType": "uint256",
          "name": "",
          "type": "uint256"
        }
      ],
      "name": "allListings",
      "outputs": [
        {
          "internalType": "contract ERC721",
          "name": "nftContract",
          "type": "address"
        },
        {
          "internalType": "address",
          "name": "seller",
          "type": "address"
        },
        {
          "internalType": "uint256",
          "name": "tokenId",
          "type": "uint256"
        },
        {
          "internalType": "uint256",
          "name": "price",
          "type": "uint256"
        }
      ],
      "stateMutability": "view",
      "type": "function",
      "constant": true
    },
    {
      "inputs": [],
      "name": "listingCount",
      "outputs": [
        {
          "internalType": "uint256",
          "name": "",
          "type": "uint256"
        }
      ],
      "stateMutability": "view",
      "type": "function",
      "constant": true
    },
    {
      "inputs": [
        {
          "internalType": "address",
          "name": "",
          "type": "address"
        },
        {
          "internalType": "address",
          "name": "from",
          "type": "address"
        },
        {
          "internalType": "uint256",
          "name": "tokenId",
          "type": "uint256"
        },
        {
          "internalType": "bytes",
          "name": "data",
          "type": "bytes"
        }
      ],
      "name": "onERC721Received",
      "outputs": [
        {
          "internalType": "bytes4",
          "name": "",
          "type": "bytes4"
        }
      ],
      "stateMutability": "nonpayable",
      "type": "function"
    },
    {
      "inputs": [
        {
          "internalType": "uint256",
          "name": "listingId",
          "type": "uint256"
        },
        {
          "internalType": "uint256",
          "name": "price",
          "type": "uint256"
        }
      ],
      "name": "setPrice",
      "outputs": [],
      "stateMutability": "nonpayable",
      "type": "function"
    },
    {
      "inputs": [
        {
          "internalType": "uint256",
          "name": "listingId",
          "type": "uint256"
        }
      ],
      "name": "purchase",
      "outputs": [],
      "stateMutability": "payable",
      "type": "function",
      "payable": true
    }
  ],
  "bytecode": "0x6080604052600060015534801561001557600080fd5b50610fb4806100256000396000f3fe60806040526004361061004a5760003560e01c80630eeaa2ef1461004f578063150b7a021461008f578063a9b07c26146100cc578063efef39a1146100f7578063f7d9757714610113575b600080fd5b34801561005b57600080fd5b5061007660048036038101906100719190610bca565b61013c565b6040516100869493929190610d3d565b60405180910390f35b34801561009b57600080fd5b506100b660048036038101906100b19190610b4a565b6101bc565b6040516100c39190610d22565b60405180910390f35b3480156100d857600080fd5b506100e1610350565b6040516100ee9190610dc2565b60405180910390f35b610111600480360381019061010c9190610bca565b610356565b005b34801561011f57600080fd5b5061013a60048036038101906101359190610bf3565b6105ab565b005b6000818154811061014c57600080fd5b90600052602060002090600402016000915090508060000160009054906101000a900473ffffffffffffffffffffffffffffffffffffffff16908060010160009054906101000a900473ffffffffffffffffffffffffffffffffffffffff16908060020154908060030154905084565b60008060405180608001604052803373ffffffffffffffffffffffffffffffffffffffff1681526020018773ffffffffffffffffffffffffffffffffffffffff16815260200186815260200161025586868080601f016020809104026020016040519081016040528093929190818152602001838380828437600081840152601f19601f82011690508083019250505050505050610877565b815250908060018154018082558091505060019003906000526020600020906004020160009091909190915060008201518160000160006101000a81548173ffffffffffffffffffffffffffffffffffffffff021916908373ffffffffffffffffffffffffffffffffffffffff16021790555060208201518160010160006101000a81548173ffffffffffffffffffffffffffffffffffffffff021916908373ffffffffffffffffffffffffffffffffffffffff160217905550604082015181600201556060820151816003015550506001600081548092919061033890610ed8565b919050555063150b7a0260e01b905095945050505050565b60015481565b600080549050811061039d576040517f08c379a000000000000000000000000000000000000000000000000000000000815260040161039490610d82565b60405180910390fd5b60008082815481106103d8577f4e487b7100000000000000000000000000000000000000000000000000000000600052603260045260246000fd5b90600052602060002090600402016040518060800160405290816000820160009054906101000a900473ffffffffffffffffffffffffffffffffffffffff1673ffffffffffffffffffffffffffffffffffffffff1673ffffffffffffffffffffffffffffffffffffffff1681526020016001820160009054906101000a900473ffffffffffffffffffffffffffffffffffffffff1673ffffffffffffffffffffffffffffffffffffffff1673ffffffffffffffffffffffffffffffffffffffff16815260200160028201548152602001600382015481525050905080606001513410156104c457600080fd5b806020015173ffffffffffffffffffffffffffffffffffffffff166108fc349081150290604051600060405180830381858888f1935050505015801561050e573d6000803e3d6000fd5b50806000015173ffffffffffffffffffffffffffffffffffffffff166342842e0e303384604001516040518463ffffffff1660e01b815260040161055493929190610ceb565b600060405180830381600087803b15801561056e57600080fd5b505af1158015610582573d6000803e3d6000fd5b5050505061058f82610885565b600160008154809291906105a290610eae565b91905055505050565b60008054905082106105f2576040517f08c379a00000000000000000000000000000000000000000000000000000000081526004016105e990610d82565b60405180910390fd5b600080838154811061062d577f4e487b7100000000000000000000000000000000000000000000000000000000600052603260045260246000fd5b90600052602060002090600402016040518060800160405290816000820160009054906101000a900473ffffffffffffffffffffffffffffffffffffffff1673ffffffffffffffffffffffffffffffffffffffff1673ffffffffffffffffffffffffffffffffffffffff1681526020016001820160009054906101000a900473ffffffffffffffffffffffffffffffffffffffff1673ffffffffffffffffffffffffffffffffffffffff1673ffffffffffffffffffffffffffffffffffffffff1681526020016002820154815260200160038201548152505090503373ffffffffffffffffffffffffffffffffffffffff16816020015173ffffffffffffffffffffffffffffffffffffffff161461077a576040517f08c379a000000000000000000000000000000000000000000000000000000000815260040161077190610da2565b60405180910390fd5b8181606001818152505080600084815481106107bf577f4e487b7100000000000000000000000000000000000000000000000000000000600052603260045260246000fd5b906000526020600020906004020160008201518160000160006101000a81548173ffffffffffffffffffffffffffffffffffffffff021916908373ffffffffffffffffffffffffffffffffffffffff16021790555060208201518160010160006101000a81548173ffffffffffffffffffffffffffffffffffffffff021916908373ffffffffffffffffffffffffffffffffffffffff1602179055506040820151816002015560608201518160030155905050505050565b600060208201519050919050565b60008080549050905060018161089b9190610dee565b8214610a235760006001826108b09190610dee565b815481106108e7577f4e487b7100000000000000000000000000000000000000000000000000000000600052603260045260246000fd5b90600052602060002090600402016000838154811061092f577f4e487b7100000000000000000000000000000000000000000000000000000000600052603260045260246000fd5b90600052602060002090600402016000820160009054906101000a900473ffffffffffffffffffffffffffffffffffffffff168160000160006101000a81548173ffffffffffffffffffffffffffffffffffffffff021916908373ffffffffffffffffffffffffffffffffffffffff1602179055506001820160009054906101000a900473ffffffffffffffffffffffffffffffffffffffff168160010160006101000a81548173ffffffffffffffffffffffffffffffffffffffff021916908373ffffffffffffffffffffffffffffffffffffffff16021790555060028201548160020155600382015481600301559050505b6000805480610a5b577f4e487b7100000000000000000000000000000000000000000000000000000000600052603160045260246000fd5b6001900381819060005260206000209060040201600080820160006101000a81549073ffffffffffffffffffffffffffffffffffffffff02191690556001820160006101000a81549073ffffffffffffffffffffffffffffffffffffffff021916905560028201600090556003820160009055505090555050565b600081359050610ae581610f50565b92915050565b60008083601f840112610afd57600080fd5b8235905067ffffffffffffffff811115610b1657600080fd5b602083019150836001820283011115610b2e57600080fd5b9250929050565b600081359050610b4481610f67565b92915050565b600080600080600060808688031215610b6257600080fd5b6000610b7088828901610ad6565b9550506020610b8188828901610ad6565b9450506040610b9288828901610b35565b935050606086013567ffffffffffffffff811115610baf57600080fd5b610bbb88828901610aeb565b92509250509295509295909350565b600060208284031215610bdc57600080fd5b6000610bea84828501610b35565b91505092915050565b60008060408385031215610c0657600080fd5b6000610c1485828601610b35565b9250506020610c2585828601610b35565b9150509250929050565b610c3881610e22565b82525050565b610c4781610e34565b82525050565b610c5681610e8a565b82525050565b6000610c69601683610ddd565b91507f4c697374696e6720646f65736e277420657869737421000000000000000000006000830152602082019050919050565b6000610ca9601683610ddd565b91507f596f75206172656e2774207468652073656c6c657221000000000000000000006000830152602082019050919050565b610ce581610e80565b82525050565b6000606082019050610d006000830186610c2f565b610d0d6020830185610c2f565b610d1a6040830184610cdc565b949350505050565b6000602082019050610d376000830184610c3e565b92915050565b6000608082019050610d526000830187610c4d565b610d5f6020830186610c2f565b610d6c6040830185610cdc565b610d796060830184610cdc565b95945050505050565b60006020820190508181036000830152610d9b81610c5c565b9050919050565b60006020820190508181036000830152610dbb81610c9c565b9050919050565b6000602082019050610dd76000830184610cdc565b92915050565b600082825260208201905092915050565b6000610df982610e80565b9150610e0483610e80565b925082821015610e1757610e16610f21565b5b828203905092915050565b6000610e2d82610e60565b9050919050565b60007fffffffff0000000000000000000000000000000000000000000000000000000082169050919050565b600073ffffffffffffffffffffffffffffffffffffffff82169050919050565b6000819050919050565b6000610e9582610e9c565b9050919050565b6000610ea782610e60565b9050919050565b6000610eb982610e80565b91506000821415610ecd57610ecc610f21565b5b600182039050919050565b6000610ee382610e80565b91507fffffffffffffffffffffffffffffffffffffffffffffffffffffffffffffffff821415610f1657610f15610f21565b5b600182019050919050565b7f4e487b7100000000000000000000000000000000000000000000000000000000600052601160045260246000fd5b610f5981610e22565b8114610f6457600080fd5b50565b610f7081610e80565b8114610f7b57600080fd5b5056fea264697066735822122036efb66302a755ed61792d22286cd81679d90afd1817a416bc3f77e309413c0864736f6c63430008000033",
  "immutableReferences": {},
  "source": "// SPDX-License-Identifier: MIT\npragma solidity >=0.4.22 <0.9.0;\n\nimport \"@openzeppelin/contracts/token/ERC721/IERC721Receiver.sol\";\nimport \"@openzeppelin/contracts/token/ERC721/ERC721.sol\";\n\n// credit: https://ethereum.stackexchange.com/questions/55269/transfer-an-erc721-token-from-another-contract\ncontract NftImageListing is IERC721Receiver {\n\n    ListingDetails[] public allListings;\n    uint256 public listingCount = 0;\n\n    struct ListingDetails {\n        ERC721 nftContract;\n        address seller;\n        uint256 tokenId;\n        uint256 price;\n    }\n\n    function onERC721Received(address, address from, uint256 tokenId, bytes calldata data) override external returns(bytes4) {\n        allListings.push(ListingDetails({\n            nftContract: ERC721(msg.sender),\n            seller: from,\n            tokenId: tokenId,\n            price: toUint256(data)\n        }));\n\n        listingCount ++;\n        return IERC721Receiver.onERC721Received.selector;\n    }\n\n    function setPrice(uint listingId, uint256 price) external {\n        // make sure listing exists\n        require(listingId < allListings.length, \"Listing doesn't exist!\");\n\n        ListingDetails memory listing = allListings[listingId];\n\n        // make sure sender is listing seller\n        require(listing.seller == msg.sender, \"You aren't the seller!\");\n\n        // change the price\n        listing.price = price;\n\n        // mark ready for sale\n        allListings[listingId] = listing;\n    }\n\n    function purchase(uint256 listingId) external payable {\n        // make sure listing exists\n        require(listingId < allListings.length, \"Listing doesn't exist!\");\n\n        ListingDetails memory listing = allListings[listingId];\n\n        // make sure the msg value is the right price\n        require(msg.value >= listing.price);\n        \n        // transfer funds to seller\n        payable(listing.seller).transfer(msg.value);\n\n        // transfer token to buyer\n        listing.nftContract.safeTransferFrom(address(this), msg.sender, listing.tokenId);\n\n        // remove from listing list\n        removeFromListingList(listingId);\n\n        listingCount --;\n        \n    }\n\n    /// @dev Removes a listing from allListings given its index\n    /// swaps the last listing into its spot if it wasn't the last element\n    function removeFromListingList(uint256 listingId) internal {\n        // if index is not the last element swap the last element into its spot\n        // and update its index\n        uint length = allListings.length;\n        if (listingId != length - 1) {\n            allListings[listingId] = allListings[length - 1];\n        }\n\n        // length --;\n        allListings.pop();\n    }\n\n    function toUint256(bytes memory _bytes) internal pure returns (uint256 value) {\n            assembly {\n            value := mload(add(_bytes, 0x20))\n            }\n        }\n}",
  "sourcePath": "/home/gary/Documents/shopifty/src/contracts/NftImageListing.sol",
  "compiler": {
    "name": "solc",
    "version": "0.8.0+commit.c7dfd78e.Emscripten.clang"
  },
  "schemaVersion": "3.4.1",
  "updatedAt": "2021-05-09T21:22:52.095Z",
  "networkType": "ethereum",
  "devdoc": {
    "kind": "dev",
    "methods": {},
    "version": 1
  },
  "userdoc": {
    "kind": "user",
    "methods": {},
    "version": 1
  }
}