{
  "contractName": "NftImageListing",
  "abi": [
    {
      "inputs": [
        {
          "internalType": "uint256",
          "name": "",
          "type": "uint256"
        }
      ],
      "name": "allListings",
      "outputs": [
        {
          "internalType": "contract ERC721",
          "name": "nftContract",
          "type": "address"
        },
        {
          "internalType": "address",
          "name": "seller",
          "type": "address"
        },
        {
          "internalType": "uint256",
          "name": "tokenId",
          "type": "uint256"
        },
        {
          "internalType": "uint256",
          "name": "price",
          "type": "uint256"
        },
        {
          "internalType": "bool",
          "name": "isReadyForSale",
          "type": "bool"
        }
      ],
      "stateMutability": "view",
      "type": "function",
      "constant": true
    },
    {
      "inputs": [],
      "name": "listingCount",
      "outputs": [
        {
          "internalType": "uint256",
          "name": "",
          "type": "uint256"
        }
      ],
      "stateMutability": "view",
      "type": "function",
      "constant": true
    },
    {
      "inputs": [
        {
          "internalType": "address",
          "name": "",
          "type": "address"
        },
        {
          "internalType": "address",
          "name": "from",
          "type": "address"
        },
        {
          "internalType": "uint256",
          "name": "tokenId",
          "type": "uint256"
        },
        {
          "internalType": "bytes",
          "name": "",
          "type": "bytes"
        }
      ],
      "name": "onERC721Received",
      "outputs": [
        {
          "internalType": "bytes4",
          "name": "",
          "type": "bytes4"
        }
      ],
      "stateMutability": "nonpayable",
      "type": "function"
    },
    {
      "inputs": [
        {
          "internalType": "uint256",
          "name": "listingId",
          "type": "uint256"
        },
        {
          "internalType": "uint256",
          "name": "price",
          "type": "uint256"
        }
      ],
      "name": "setPrice",
      "outputs": [],
      "stateMutability": "nonpayable",
      "type": "function"
    },
    {
      "inputs": [
        {
          "internalType": "uint256",
          "name": "listingId",
          "type": "uint256"
        }
      ],
      "name": "purchase",
      "outputs": [],
      "stateMutability": "payable",
      "type": "function",
      "payable": true
    }
  ],
  "bytecode": "0x6080604052600060015534801561001557600080fd5b50611133806100256000396000f3fe60806040526004361061004a5760003560e01c80630eeaa2ef1461004f578063150b7a0214610090578063a9b07c26146100cd578063efef39a1146100f8578063f7d9757714610114575b600080fd5b34801561005b57600080fd5b5061007660048036038101906100719190610c9a565b61013d565b604051610087959493929190610e82565b60405180910390f35b34801561009c57600080fd5b506100b760048036038101906100b29190610c1a565b6101d0565b6040516100c49190610e67565b60405180910390f35b3480156100d957600080fd5b506100e2610342565b6040516100ef9190610f35565b60405180910390f35b610112600480360381019061010d9190610c9a565b610348565b005b34801561012057600080fd5b5061013b60048036038101906101369190610cc3565b6105fc565b005b6000818154811061014d57600080fd5b90600052602060002090600502016000915090508060000160009054906101000a900473ffffffffffffffffffffffffffffffffffffffff16908060010160009054906101000a900473ffffffffffffffffffffffffffffffffffffffff16908060020154908060030154908060040160009054906101000a900460ff16905085565b6000806040518060a001604052803373ffffffffffffffffffffffffffffffffffffffff1681526020018773ffffffffffffffffffffffffffffffffffffffff1681526020018681526020016000815260200160001515815250908060018154018082558091505060019003906000526020600020906005020160009091909190915060008201518160000160006101000a81548173ffffffffffffffffffffffffffffffffffffffff021916908373ffffffffffffffffffffffffffffffffffffffff16021790555060208201518160010160006101000a81548173ffffffffffffffffffffffffffffffffffffffff021916908373ffffffffffffffffffffffffffffffffffffffff160217905550604082015181600201556060820151816003015560808201518160040160006101000a81548160ff02191690831515021790555050506001600081548092919061032a90611057565b919050555063150b7a0260e01b905095945050505050565b60015481565b600080549050811061038f576040517f08c379a000000000000000000000000000000000000000000000000000000000815260040161038690610ed5565b60405180910390fd5b60008082815481106103ca577f4e487b7100000000000000000000000000000000000000000000000000000000600052603260045260246000fd5b90600052602060002090600502016040518060a00160405290816000820160009054906101000a900473ffffffffffffffffffffffffffffffffffffffff1673ffffffffffffffffffffffffffffffffffffffff1673ffffffffffffffffffffffffffffffffffffffff1681526020016001820160009054906101000a900473ffffffffffffffffffffffffffffffffffffffff1673ffffffffffffffffffffffffffffffffffffffff1673ffffffffffffffffffffffffffffffffffffffff16815260200160028201548152602001600382015481526020016004820160009054906101000a900460ff16151515158152505090508060800151610504576040517f08c379a00000000000000000000000000000000000000000000000000000000081526004016104fb90610f15565b60405180910390fd5b806060015134101561051557600080fd5b806020015173ffffffffffffffffffffffffffffffffffffffff166108fc349081150290604051600060405180830381858888f1935050505015801561055f573d6000803e3d6000fd5b50806000015173ffffffffffffffffffffffffffffffffffffffff166342842e0e303384604001516040518463ffffffff1660e01b81526004016105a593929190610e30565b600060405180830381600087803b1580156105bf57600080fd5b505af11580156105d3573d6000803e3d6000fd5b505050506105e082610914565b600160008154809291906105f39061102d565b91905055505050565b6000805490508210610643576040517f08c379a000000000000000000000000000000000000000000000000000000000815260040161063a90610ed5565b60405180910390fd5b600080838154811061067e577f4e487b7100000000000000000000000000000000000000000000000000000000600052603260045260246000fd5b90600052602060002090600502016040518060a00160405290816000820160009054906101000a900473ffffffffffffffffffffffffffffffffffffffff1673ffffffffffffffffffffffffffffffffffffffff1673ffffffffffffffffffffffffffffffffffffffff1681526020016001820160009054906101000a900473ffffffffffffffffffffffffffffffffffffffff1673ffffffffffffffffffffffffffffffffffffffff1673ffffffffffffffffffffffffffffffffffffffff16815260200160028201548152602001600382015481526020016004820160009054906101000a900460ff16151515158152505090503373ffffffffffffffffffffffffffffffffffffffff16816020015173ffffffffffffffffffffffffffffffffffffffff16146107e6576040517f08c379a00000000000000000000000000000000000000000000000000000000081526004016107dd90610ef5565b60405180910390fd5b818160600181815250506001816080019015159081151581525050806000848154811061083c577f4e487b7100000000000000000000000000000000000000000000000000000000600052603260045260246000fd5b906000526020600020906005020160008201518160000160006101000a81548173ffffffffffffffffffffffffffffffffffffffff021916908373ffffffffffffffffffffffffffffffffffffffff16021790555060208201518160010160006101000a81548173ffffffffffffffffffffffffffffffffffffffff021916908373ffffffffffffffffffffffffffffffffffffffff160217905550604082015181600201556060820151816003015560808201518160040160006101000a81548160ff021916908315150217905550905050505050565b60008080549050905060018161092a9190610f61565b8214610adf57600060018261093f9190610f61565b81548110610976577f4e487b7100000000000000000000000000000000000000000000000000000000600052603260045260246000fd5b9060005260206000209060050201600083815481106109be577f4e487b7100000000000000000000000000000000000000000000000000000000600052603260045260246000fd5b90600052602060002090600502016000820160009054906101000a900473ffffffffffffffffffffffffffffffffffffffff168160000160006101000a81548173ffffffffffffffffffffffffffffffffffffffff021916908373ffffffffffffffffffffffffffffffffffffffff1602179055506001820160009054906101000a900473ffffffffffffffffffffffffffffffffffffffff168160010160006101000a81548173ffffffffffffffffffffffffffffffffffffffff021916908373ffffffffffffffffffffffffffffffffffffffff16021790555060028201548160020155600382015481600301556004820160009054906101000a900460ff168160040160006101000a81548160ff0219169083151502179055509050505b6000805480610b17577f4e487b7100000000000000000000000000000000000000000000000000000000600052603160045260246000fd5b6001900381819060005260206000209060050201600080820160006101000a81549073ffffffffffffffffffffffffffffffffffffffff02191690556001820160006101000a81549073ffffffffffffffffffffffffffffffffffffffff0219169055600282016000905560038201600090556004820160006101000a81549060ff0219169055505090555050565b600081359050610bb5816110cf565b92915050565b60008083601f840112610bcd57600080fd5b8235905067ffffffffffffffff811115610be657600080fd5b602083019150836001820283011115610bfe57600080fd5b9250929050565b600081359050610c14816110e6565b92915050565b600080600080600060808688031215610c3257600080fd5b6000610c4088828901610ba6565b9550506020610c5188828901610ba6565b9450506040610c6288828901610c05565b935050606086013567ffffffffffffffff811115610c7f57600080fd5b610c8b88828901610bbb565b92509250509295509295909350565b600060208284031215610cac57600080fd5b6000610cba84828501610c05565b91505092915050565b60008060408385031215610cd657600080fd5b6000610ce485828601610c05565b9250506020610cf585828601610c05565b9150509250929050565b610d0881610f95565b82525050565b610d1781610fa7565b82525050565b610d2681610fb3565b82525050565b610d3581611009565b82525050565b6000610d48601683610f50565b91507f4c697374696e6720646f65736e277420657869737421000000000000000000006000830152602082019050919050565b6000610d88601683610f50565b91507f596f75206172656e2774207468652073656c6c657221000000000000000000006000830152602082019050919050565b6000610dc8602283610f50565b91507f4c697374696e67206973206e6f7420726561647920666f722073616c6520796560008301527f74210000000000000000000000000000000000000000000000000000000000006020830152604082019050919050565b610e2a81610fff565b82525050565b6000606082019050610e456000830186610cff565b610e526020830185610cff565b610e5f6040830184610e21565b949350505050565b6000602082019050610e7c6000830184610d1d565b92915050565b600060a082019050610e976000830188610d2c565b610ea46020830187610cff565b610eb16040830186610e21565b610ebe6060830185610e21565b610ecb6080830184610d0e565b9695505050505050565b60006020820190508181036000830152610eee81610d3b565b9050919050565b60006020820190508181036000830152610f0e81610d7b565b9050919050565b60006020820190508181036000830152610f2e81610dbb565b9050919050565b6000602082019050610f4a6000830184610e21565b92915050565b600082825260208201905092915050565b6000610f6c82610fff565b9150610f7783610fff565b925082821015610f8a57610f896110a0565b5b828203905092915050565b6000610fa082610fdf565b9050919050565b60008115159050919050565b60007fffffffff0000000000000000000000000000000000000000000000000000000082169050919050565b600073ffffffffffffffffffffffffffffffffffffffff82169050919050565b6000819050919050565b60006110148261101b565b9050919050565b600061102682610fdf565b9050919050565b600061103882610fff565b9150600082141561104c5761104b6110a0565b5b600182039050919050565b600061106282610fff565b91507fffffffffffffffffffffffffffffffffffffffffffffffffffffffffffffffff821415611095576110946110a0565b5b600182019050919050565b7f4e487b7100000000000000000000000000000000000000000000000000000000600052601160045260246000fd5b6110d881610f95565b81146110e357600080fd5b50565b6110ef81610fff565b81146110fa57600080fd5b5056fea26469706673582212204976780c2805c47d3b49062ce4d39879e3fdc8089d195afa5e81bfca3fc41a9164736f6c63430008000033",
  "immutableReferences": {},
  "source": "// SPDX-License-Identifier: MIT\npragma solidity >=0.4.22 <0.9.0;\n\nimport \"@openzeppelin/contracts/token/ERC721/IERC721Receiver.sol\";\nimport \"@openzeppelin/contracts/token/ERC721/ERC721.sol\";\n\n// credit: https://ethereum.stackexchange.com/questions/55269/transfer-an-erc721-token-from-another-contract\ncontract NftImageListing is IERC721Receiver {\n\n    ListingDetails[] public allListings;\n    uint256 public listingCount = 0;\n\n    struct ListingDetails {\n        ERC721 nftContract;\n        address seller;\n        uint256 tokenId;\n        uint price;\n        bool isReadyForSale;\n    }\n\n    function onERC721Received(address, address from, uint256 tokenId, bytes calldata) override external returns(bytes4) {\n        allListings.push(ListingDetails({\n            nftContract: ERC721(msg.sender),\n            seller: from,\n            tokenId: tokenId,\n            price: 0,\n            isReadyForSale: false\n        }));\n\n        listingCount ++;\n        return IERC721Receiver.onERC721Received.selector;\n    }\n\n    function setPrice(uint listingId, uint price) external {\n        // make sure listing exists\n        require(listingId < allListings.length, \"Listing doesn't exist!\");\n\n        ListingDetails memory listing = allListings[listingId];\n\n        // make sure sender is listing seller\n        require(listing.seller == msg.sender, \"You aren't the seller!\");\n\n        // change the price\n        listing.price = price;\n\n        // mark ready for sale\n        listing.isReadyForSale = true;\n        allListings[listingId] = listing;\n    }\n\n    function purchase(uint256 listingId) external payable {\n        // make sure listing exists\n        require(listingId < allListings.length, \"Listing doesn't exist!\");\n\n        ListingDetails memory listing = allListings[listingId];\n        \n        // make sure listing is for sale\n        require(listing.isReadyForSale, \"Listing is not ready for sale yet!\");\n\n        // make sure the msg value is the right price\n        require(msg.value >= listing.price);\n        \n        // transfer funds to seller\n        payable(listing.seller).transfer(msg.value);\n\n        // transfer token to buyer\n        listing.nftContract.safeTransferFrom(address(this), msg.sender, listing.tokenId);\n\n        // remove from listing list\n        removeFromListingList(listingId);\n\n        listingCount --;\n        \n    }\n\n    /// @dev Removes a listing from allListings given its index\n    /// swaps the last listing into its spot if it wasn't the last element\n    function removeFromListingList(uint256 listingId) internal {\n        // if index is not the last element swap the last element into its spot\n        // and update its index\n        uint length = allListings.length;\n        if (listingId != length - 1) {\n            allListings[listingId] = allListings[length - 1];\n        }\n\n        // length --;\n        allListings.pop();\n    }\n}",
  "sourcePath": "/home/gary/Documents/shopifty/src/contracts/NftImageListing.sol",
  "compiler": {
    "name": "solc",
    "version": "0.8.0+commit.c7dfd78e.Emscripten.clang"
  },
  "schemaVersion": "3.4.1",
  "updatedAt": "2021-05-09T05:29:22.071Z",
  "networkType": "ethereum",
  "devdoc": {
    "kind": "dev",
    "methods": {},
    "version": 1
  },
  "userdoc": {
    "kind": "user",
    "methods": {},
    "version": 1
  }
}