{
  "contractName": "NftImage",
  "abi": [
    {
      "inputs": [],
      "stateMutability": "nonpayable",
      "type": "constructor"
    },
    {
      "anonymous": false,
      "inputs": [
        {
          "indexed": true,
          "internalType": "address",
          "name": "owner",
          "type": "address"
        },
        {
          "indexed": true,
          "internalType": "address",
          "name": "approved",
          "type": "address"
        },
        {
          "indexed": true,
          "internalType": "uint256",
          "name": "tokenId",
          "type": "uint256"
        }
      ],
      "name": "Approval",
      "type": "event"
    },
    {
      "anonymous": false,
      "inputs": [
        {
          "indexed": true,
          "internalType": "address",
          "name": "owner",
          "type": "address"
        },
        {
          "indexed": true,
          "internalType": "address",
          "name": "operator",
          "type": "address"
        },
        {
          "indexed": false,
          "internalType": "bool",
          "name": "approved",
          "type": "bool"
        }
      ],
      "name": "ApprovalForAll",
      "type": "event"
    },
    {
      "anonymous": false,
      "inputs": [
        {
          "indexed": true,
          "internalType": "address",
          "name": "from",
          "type": "address"
        },
        {
          "indexed": true,
          "internalType": "address",
          "name": "to",
          "type": "address"
        },
        {
          "indexed": true,
          "internalType": "uint256",
          "name": "tokenId",
          "type": "uint256"
        }
      ],
      "name": "Transfer",
      "type": "event"
    },
    {
      "anonymous": false,
      "inputs": [
        {
          "indexed": false,
          "internalType": "uint256",
          "name": "id",
          "type": "uint256"
        },
        {
          "indexed": false,
          "internalType": "uint256",
          "name": "price",
          "type": "uint256"
        }
      ],
      "name": "imagePutUpForSale",
      "type": "event"
    },
    {
      "inputs": [
        {
          "internalType": "address",
          "name": "to",
          "type": "address"
        },
        {
          "internalType": "uint256",
          "name": "tokenId",
          "type": "uint256"
        }
      ],
      "name": "approve",
      "outputs": [],
      "stateMutability": "nonpayable",
      "type": "function"
    },
    {
      "inputs": [
        {
          "internalType": "address",
          "name": "owner",
          "type": "address"
        }
      ],
      "name": "balanceOf",
      "outputs": [
        {
          "internalType": "uint256",
          "name": "",
          "type": "uint256"
        }
      ],
      "stateMutability": "view",
      "type": "function",
      "constant": true
    },
    {
      "inputs": [
        {
          "internalType": "uint256",
          "name": "tokenId",
          "type": "uint256"
        }
      ],
      "name": "getApproved",
      "outputs": [
        {
          "internalType": "address",
          "name": "",
          "type": "address"
        }
      ],
      "stateMutability": "view",
      "type": "function",
      "constant": true
    },
    {
      "inputs": [],
      "name": "imageCount",
      "outputs": [
        {
          "internalType": "uint256",
          "name": "",
          "type": "uint256"
        }
      ],
      "stateMutability": "view",
      "type": "function",
      "constant": true
    },
    {
      "inputs": [
        {
          "internalType": "uint256",
          "name": "",
          "type": "uint256"
        }
      ],
      "name": "images",
      "outputs": [
        {
          "internalType": "uint256",
          "name": "id",
          "type": "uint256"
        },
        {
          "internalType": "string",
          "name": "hash",
          "type": "string"
        },
        {
          "internalType": "string",
          "name": "description",
          "type": "string"
        },
        {
          "internalType": "uint256",
          "name": "price",
          "type": "uint256"
        }
      ],
      "stateMutability": "view",
      "type": "function",
      "constant": true
    },
    {
      "inputs": [
        {
          "internalType": "address",
          "name": "owner",
          "type": "address"
        },
        {
          "internalType": "address",
          "name": "operator",
          "type": "address"
        }
      ],
      "name": "isApprovedForAll",
      "outputs": [
        {
          "internalType": "bool",
          "name": "",
          "type": "bool"
        }
      ],
      "stateMutability": "view",
      "type": "function",
      "constant": true
    },
    {
      "inputs": [],
      "name": "name",
      "outputs": [
        {
          "internalType": "string",
          "name": "",
          "type": "string"
        }
      ],
      "stateMutability": "view",
      "type": "function",
      "constant": true
    },
    {
      "inputs": [
        {
          "internalType": "uint256",
          "name": "tokenId",
          "type": "uint256"
        }
      ],
      "name": "ownerOf",
      "outputs": [
        {
          "internalType": "address",
          "name": "",
          "type": "address"
        }
      ],
      "stateMutability": "view",
      "type": "function",
      "constant": true
    },
    {
      "inputs": [
        {
          "internalType": "address",
          "name": "from",
          "type": "address"
        },
        {
          "internalType": "address",
          "name": "to",
          "type": "address"
        },
        {
          "internalType": "uint256",
          "name": "tokenId",
          "type": "uint256"
        }
      ],
      "name": "safeTransferFrom",
      "outputs": [],
      "stateMutability": "nonpayable",
      "type": "function"
    },
    {
      "inputs": [
        {
          "internalType": "address",
          "name": "from",
          "type": "address"
        },
        {
          "internalType": "address",
          "name": "to",
          "type": "address"
        },
        {
          "internalType": "uint256",
          "name": "tokenId",
          "type": "uint256"
        },
        {
          "internalType": "bytes",
          "name": "_data",
          "type": "bytes"
        }
      ],
      "name": "safeTransferFrom",
      "outputs": [],
      "stateMutability": "nonpayable",
      "type": "function"
    },
    {
      "inputs": [
        {
          "internalType": "address",
          "name": "operator",
          "type": "address"
        },
        {
          "internalType": "bool",
          "name": "approved",
          "type": "bool"
        }
      ],
      "name": "setApprovalForAll",
      "outputs": [],
      "stateMutability": "nonpayable",
      "type": "function"
    },
    {
      "inputs": [
        {
          "internalType": "bytes4",
          "name": "interfaceId",
          "type": "bytes4"
        }
      ],
      "name": "supportsInterface",
      "outputs": [
        {
          "internalType": "bool",
          "name": "",
          "type": "bool"
        }
      ],
      "stateMutability": "view",
      "type": "function",
      "constant": true
    },
    {
      "inputs": [],
      "name": "symbol",
      "outputs": [
        {
          "internalType": "string",
          "name": "",
          "type": "string"
        }
      ],
      "stateMutability": "view",
      "type": "function",
      "constant": true
    },
    {
      "inputs": [
        {
          "internalType": "uint256",
          "name": "index",
          "type": "uint256"
        }
      ],
      "name": "tokenByIndex",
      "outputs": [
        {
          "internalType": "uint256",
          "name": "",
          "type": "uint256"
        }
      ],
      "stateMutability": "view",
      "type": "function",
      "constant": true
    },
    {
      "inputs": [
        {
          "internalType": "address",
          "name": "owner",
          "type": "address"
        },
        {
          "internalType": "uint256",
          "name": "index",
          "type": "uint256"
        }
      ],
      "name": "tokenOfOwnerByIndex",
      "outputs": [
        {
          "internalType": "uint256",
          "name": "",
          "type": "uint256"
        }
      ],
      "stateMutability": "view",
      "type": "function",
      "constant": true
    },
    {
      "inputs": [
        {
          "internalType": "uint256",
          "name": "tokenId",
          "type": "uint256"
        }
      ],
      "name": "tokenURI",
      "outputs": [
        {
          "internalType": "string",
          "name": "",
          "type": "string"
        }
      ],
      "stateMutability": "view",
      "type": "function",
      "constant": true
    },
    {
      "inputs": [],
      "name": "totalSupply",
      "outputs": [
        {
          "internalType": "uint256",
          "name": "",
          "type": "uint256"
        }
      ],
      "stateMutability": "view",
      "type": "function",
      "constant": true
    },
    {
      "inputs": [
        {
          "internalType": "address",
          "name": "from",
          "type": "address"
        },
        {
          "internalType": "address",
          "name": "to",
          "type": "address"
        },
        {
          "internalType": "uint256",
          "name": "tokenId",
          "type": "uint256"
        }
      ],
      "name": "transferFrom",
      "outputs": [],
      "stateMutability": "nonpayable",
      "type": "function"
    },
    {
      "inputs": [
        {
          "internalType": "string",
          "name": "_hash",
          "type": "string"
        },
        {
          "internalType": "string",
          "name": "_description",
          "type": "string"
        }
      ],
      "name": "mint",
      "outputs": [],
      "stateMutability": "nonpayable",
      "type": "function"
    }
  ],
  "bytecode": "0x60806040526000600c553480156200001657600080fd5b506040518060400160405280600881526020017f4e6674496d6167650000000000000000000000000000000000000000000000008152506040518060400160405280600881526020017f4e4654494d41474500000000000000000000000000000000000000000000000081525081600090805190602001906200009b929190620000bd565b508060019080519060200190620000b4929190620000bd565b505050620001d2565b828054620000cb906200016d565b90600052602060002090601f016020900481019282620000ef57600085556200013b565b82601f106200010a57805160ff19168380011785556200013b565b828001600101855582156200013b579182015b828111156200013a5782518255916020019190600101906200011d565b5b5090506200014a91906200014e565b5090565b5b80821115620001695760008160009055506001016200014f565b5090565b600060028204905060018216806200018657607f821691505b602082108114156200019d576200019c620001a3565b5b50919050565b7f4e487b7100000000000000000000000000000000000000000000000000000000600052602260045260246000fd5b6133f380620001e26000396000f3fe608060405234801561001057600080fd5b50600436106101215760003560e01c80636352211e116100ad57806395d89b411161007157806395d89b4114610343578063a22cb46514610361578063b88d4fde1461037d578063c87b56dd14610399578063e985e9c5146103c957610121565b80636352211e1461027657806370a08231146102a657806384856482146102d65780638aa0fdad1461030957806392053b631461032557610121565b806318160ddd116100f457806318160ddd146101c057806323b872dd146101de5780632f745c59146101fa57806342842e0e1461022a5780634f6ccce71461024657610121565b806301ffc9a71461012657806306fdde0314610156578063081812fc14610174578063095ea7b3146101a4575b600080fd5b610140600480360381019061013b919061242b565b6103f9565b60405161014d9190612cd8565b60405180910390f35b61015e610473565b60405161016b9190612cf3565b60405180910390f35b61018e600480360381019061018991906124e9565b610505565b60405161019b9190612c71565b60405180910390f35b6101be60048036038101906101b991906123ef565b61058a565b005b6101c86106a2565b6040516101d59190612f35565b60405180910390f35b6101f860048036038101906101f391906122e9565b6106af565b005b610214600480360381019061020f91906123ef565b61070f565b6040516102219190612f35565b60405180910390f35b610244600480360381019061023f91906122e9565b6107b4565b005b610260600480360381019061025b91906124e9565b6107d4565b60405161026d9190612f35565b60405180910390f35b610290600480360381019061028b91906124e9565b61086b565b60405161029d9190612c71565b60405180910390f35b6102c060048036038101906102bb9190612284565b61091d565b6040516102cd9190612f35565b60405180910390f35b6102f060048036038101906102eb91906124e9565b6109d5565b6040516103009493929190612f50565b60405180910390f35b610323600480360381019061031e919061247d565b610b25565b005b61032d610c9d565b60405161033a9190612f35565b60405180910390f35b61034b610ca3565b6040516103589190612cf3565b60405180910390f35b61037b600480360381019061037691906123b3565b610d35565b005b61039760048036038101906103929190612338565b610eb6565b005b6103b360048036038101906103ae91906124e9565b610f18565b6040516103c09190612cf3565b60405180910390f35b6103e360048036038101906103de91906122ad565b610fbf565b6040516103f09190612cd8565b60405180910390f35b60007f780e9d63000000000000000000000000000000000000000000000000000000007bffffffffffffffffffffffffffffffffffffffffffffffffffffffff1916827bffffffffffffffffffffffffffffffffffffffffffffffffffffffff1916148061046c575061046b82611053565b5b9050919050565b606060008054610482906131e8565b80601f01602080910402602001604051908101604052809291908181526020018280546104ae906131e8565b80156104fb5780601f106104d0576101008083540402835291602001916104fb565b820191906000526020600020905b8154815290600101906020018083116104de57829003601f168201915b5050505050905090565b600061051082611135565b61054f576040517f08c379a000000000000000000000000000000000000000000000000000000000815260040161054690612e55565b60405180910390fd5b6004600083815260200190815260200160002060009054906101000a900473ffffffffffffffffffffffffffffffffffffffff169050919050565b60006105958261086b565b90508073ffffffffffffffffffffffffffffffffffffffff168373ffffffffffffffffffffffffffffffffffffffff161415610606576040517f08c379a00000000000000000000000000000000000000000000000000000000081526004016105fd90612eb5565b60405180910390fd5b8073ffffffffffffffffffffffffffffffffffffffff166106256111a1565b73ffffffffffffffffffffffffffffffffffffffff16148061065457506106538161064e6111a1565b610fbf565b5b610693576040517f08c379a000000000000000000000000000000000000000000000000000000000815260040161068a90612dd5565b60405180910390fd5b61069d83836111a9565b505050565b6000600880549050905090565b6106c06106ba6111a1565b82611262565b6106ff576040517f08c379a00000000000000000000000000000000000000000000000000000000081526004016106f690612ef5565b60405180910390fd5b61070a838383611340565b505050565b600061071a8361091d565b821061075b576040517f08c379a000000000000000000000000000000000000000000000000000000000815260040161075290612d15565b60405180910390fd5b600660008473ffffffffffffffffffffffffffffffffffffffff1673ffffffffffffffffffffffffffffffffffffffff168152602001908152602001600020600083815260200190815260200160002054905092915050565b6107cf83838360405180602001604052806000815250610eb6565b505050565b60006107de6106a2565b821061081f576040517f08c379a000000000000000000000000000000000000000000000000000000000815260040161081690612f15565b60405180910390fd5b60088281548110610859577f4e487b7100000000000000000000000000000000000000000000000000000000600052603260045260246000fd5b90600052602060002001549050919050565b6000806002600084815260200190815260200160002060009054906101000a900473ffffffffffffffffffffffffffffffffffffffff169050600073ffffffffffffffffffffffffffffffffffffffff168173ffffffffffffffffffffffffffffffffffffffff161415610914576040517f08c379a000000000000000000000000000000000000000000000000000000000815260040161090b90612e15565b60405180910390fd5b80915050919050565b60008073ffffffffffffffffffffffffffffffffffffffff168273ffffffffffffffffffffffffffffffffffffffff16141561098e576040517f08c379a000000000000000000000000000000000000000000000000000000000815260040161098590612df5565b60405180910390fd5b600360008373ffffffffffffffffffffffffffffffffffffffff1673ffffffffffffffffffffffffffffffffffffffff168152602001908152602001600020549050919050565b600b81815481106109e557600080fd5b9060005260206000209060040201600091509050806000015490806001018054610a0e906131e8565b80601f0160208091040260200160405190810160405280929190818152602001828054610a3a906131e8565b8015610a875780601f10610a5c57610100808354040283529160200191610a87565b820191906000526020600020905b815481529060010190602001808311610a6a57829003601f168201915b505050505090806002018054610a9c906131e8565b80601f0160208091040260200160405190810160405280929190818152602001828054610ac8906131e8565b8015610b155780601f10610aea57610100808354040283529160200191610b15565b820191906000526020600020905b815481529060010190602001808311610af857829003601f168201915b5050505050908060030154905084565b6000825111610b3357600080fd5b600a82604051610b439190612c36565b908152602001604051809103902060009054906101000a900460ff1615610b9f576040517f08c379a0000000000000000000000000000000000000000000000000000000008152600401610b9690612ed5565b60405180910390fd5b610bab33600c5461159c565b600b6040518060800160405280600c54815260200184815260200183815260200160008152509080600181540180825580915050600190039060005260206000209060040201600090919091909150600082015181600001556020820151816001019080519060200190610c209291906120a8565b506040820151816002019080519060200190610c3d9291906120a8565b506060820151816003015550506001600a83604051610c5c9190612c36565b908152602001604051809103902060006101000a81548160ff021916908315150217905550600c6000815480929190610c949061321a565b91905055505050565b600c5481565b606060018054610cb2906131e8565b80601f0160208091040260200160405190810160405280929190818152602001828054610cde906131e8565b8015610d2b5780601f10610d0057610100808354040283529160200191610d2b565b820191906000526020600020905b815481529060010190602001808311610d0e57829003601f168201915b5050505050905090565b610d3d6111a1565b73ffffffffffffffffffffffffffffffffffffffff168273ffffffffffffffffffffffffffffffffffffffff161415610dab576040517f08c379a0000000000000000000000000000000000000000000000000000000008152600401610da290612d95565b60405180910390fd5b8060056000610db86111a1565b73ffffffffffffffffffffffffffffffffffffffff1673ffffffffffffffffffffffffffffffffffffffff16815260200190815260200160002060008473ffffffffffffffffffffffffffffffffffffffff1673ffffffffffffffffffffffffffffffffffffffff16815260200190815260200160002060006101000a81548160ff0219169083151502179055508173ffffffffffffffffffffffffffffffffffffffff16610e656111a1565b73ffffffffffffffffffffffffffffffffffffffff167f17307eab39ab6107e8899845ad3d59bd9653f200f220920489ca2b5937696c3183604051610eaa9190612cd8565b60405180910390a35050565b610ec7610ec16111a1565b83611262565b610f06576040517f08c379a0000000000000000000000000000000000000000000000000000000008152600401610efd90612ef5565b60405180910390fd5b610f12848484846115ba565b50505050565b6060610f2382611135565b610f62576040517f08c379a0000000000000000000000000000000000000000000000000000000008152600401610f5990612e95565b60405180910390fd5b6000610f6c611616565b90506000815111610f8c5760405180602001604052806000815250610fb7565b80610f968461162d565b604051602001610fa7929190612c4d565b6040516020818303038152906040525b915050919050565b6000600560008473ffffffffffffffffffffffffffffffffffffffff1673ffffffffffffffffffffffffffffffffffffffff16815260200190815260200160002060008373ffffffffffffffffffffffffffffffffffffffff1673ffffffffffffffffffffffffffffffffffffffff16815260200190815260200160002060009054906101000a900460ff16905092915050565b60007f80ac58cd000000000000000000000000000000000000000000000000000000007bffffffffffffffffffffffffffffffffffffffffffffffffffffffff1916827bffffffffffffffffffffffffffffffffffffffffffffffffffffffff1916148061111e57507f5b5e139f000000000000000000000000000000000000000000000000000000007bffffffffffffffffffffffffffffffffffffffffffffffffffffffff1916827bffffffffffffffffffffffffffffffffffffffffffffffffffffffff1916145b8061112e575061112d826117da565b5b9050919050565b60008073ffffffffffffffffffffffffffffffffffffffff166002600084815260200190815260200160002060009054906101000a900473ffffffffffffffffffffffffffffffffffffffff1673ffffffffffffffffffffffffffffffffffffffff1614159050919050565b600033905090565b816004600083815260200190815260200160002060006101000a81548173ffffffffffffffffffffffffffffffffffffffff021916908373ffffffffffffffffffffffffffffffffffffffff160217905550808273ffffffffffffffffffffffffffffffffffffffff1661121c8361086b565b73ffffffffffffffffffffffffffffffffffffffff167f8c5be1e5ebec7d5bd14f71427d1e84f3dd0314c0f7b2291e5b200ac8c7c3b92560405160405180910390a45050565b600061126d82611135565b6112ac576040517f08c379a00000000000000000000000000000000000000000000000000000000081526004016112a390612db5565b60405180910390fd5b60006112b78361086b565b90508073ffffffffffffffffffffffffffffffffffffffff168473ffffffffffffffffffffffffffffffffffffffff16148061132657508373ffffffffffffffffffffffffffffffffffffffff1661130e84610505565b73ffffffffffffffffffffffffffffffffffffffff16145b8061133757506113368185610fbf565b5b91505092915050565b8273ffffffffffffffffffffffffffffffffffffffff166113608261086b565b73ffffffffffffffffffffffffffffffffffffffff16146113b6576040517f08c379a00000000000000000000000000000000000000000000000000000000081526004016113ad90612e75565b60405180910390fd5b600073ffffffffffffffffffffffffffffffffffffffff168273ffffffffffffffffffffffffffffffffffffffff161415611426576040517f08c379a000000000000000000000000000000000000000000000000000000000815260040161141d90612d75565b60405180910390fd5b611431838383611844565b61143c6000826111a9565b6001600360008573ffffffffffffffffffffffffffffffffffffffff1673ffffffffffffffffffffffffffffffffffffffff168152602001908152602001600020600082825461148c91906130fe565b925050819055506001600360008473ffffffffffffffffffffffffffffffffffffffff1673ffffffffffffffffffffffffffffffffffffffff16815260200190815260200160002060008282546114e39190613077565b92505081905550816002600083815260200190815260200160002060006101000a81548173ffffffffffffffffffffffffffffffffffffffff021916908373ffffffffffffffffffffffffffffffffffffffff160217905550808273ffffffffffffffffffffffffffffffffffffffff168473ffffffffffffffffffffffffffffffffffffffff167fddf252ad1be2c89b69c2b068fc378daa952ba7f163c4a11628f55a4df523b3ef60405160405180910390a4505050565b6115b6828260405180602001604052806000815250611958565b5050565b6115c5848484611340565b6115d1848484846119b3565b611610576040517f08c379a000000000000000000000000000000000000000000000000000000000815260040161160790612d35565b60405180910390fd5b50505050565b606060405180602001604052806000815250905090565b60606000821415611675576040518060400160405280600181526020017f300000000000000000000000000000000000000000000000000000000000000081525090506117d5565b600082905060005b600082146116a75780806116909061321a565b915050600a826116a091906130cd565b915061167d565b60008167ffffffffffffffff8111156116e9577f4e487b7100000000000000000000000000000000000000000000000000000000600052604160045260246000fd5b6040519080825280601f01601f19166020018201604052801561171b5781602001600182028036833780820191505090505b5090505b600085146117ce5760018261173491906130fe565b9150600a856117439190613263565b603061174f9190613077565b60f81b81838151811061178b577f4e487b7100000000000000000000000000000000000000000000000000000000600052603260045260246000fd5b60200101907effffffffffffffffffffffffffffffffffffffffffffffffffffffffffffff1916908160001a905350600a856117c791906130cd565b945061171f565b8093505050505b919050565b60007f01ffc9a7000000000000000000000000000000000000000000000000000000007bffffffffffffffffffffffffffffffffffffffffffffffffffffffff1916827bffffffffffffffffffffffffffffffffffffffffffffffffffffffff1916149050919050565b61184f838383611b4a565b600073ffffffffffffffffffffffffffffffffffffffff168373ffffffffffffffffffffffffffffffffffffffff1614156118925761188d81611b4f565b6118d1565b8173ffffffffffffffffffffffffffffffffffffffff168373ffffffffffffffffffffffffffffffffffffffff16146118d0576118cf8382611b98565b5b5b600073ffffffffffffffffffffffffffffffffffffffff168273ffffffffffffffffffffffffffffffffffffffff1614156119145761190f81611d05565b611953565b8273ffffffffffffffffffffffffffffffffffffffff168273ffffffffffffffffffffffffffffffffffffffff1614611952576119518282611e48565b5b5b505050565b6119628383611ec7565b61196f60008484846119b3565b6119ae576040517f08c379a00000000000000000000000000000000000000000000000000000000081526004016119a590612d35565b60405180910390fd5b505050565b60006119d48473ffffffffffffffffffffffffffffffffffffffff16612095565b15611b3d578373ffffffffffffffffffffffffffffffffffffffff1663150b7a026119fd6111a1565b8786866040518563ffffffff1660e01b8152600401611a1f9493929190612c8c565b602060405180830381600087803b158015611a3957600080fd5b505af1925050508015611a6a57506040513d601f19601f82011682018060405250810190611a679190612454565b60015b611aed573d8060008114611a9a576040519150601f19603f3d011682016040523d82523d6000602084013e611a9f565b606091505b50600081511415611ae5576040517f08c379a0000000000000000000000000000000000000000000000000000000008152600401611adc90612d35565b60405180910390fd5b805181602001fd5b63150b7a0260e01b7bffffffffffffffffffffffffffffffffffffffffffffffffffffffff1916817bffffffffffffffffffffffffffffffffffffffffffffffffffffffff191614915050611b42565b600190505b949350505050565b505050565b6008805490506009600083815260200190815260200160002081905550600881908060018154018082558091505060019003906000526020600020016000909190919091505550565b60006001611ba58461091d565b611baf91906130fe565b9050600060076000848152602001908152602001600020549050818114611c94576000600660008673ffffffffffffffffffffffffffffffffffffffff1673ffffffffffffffffffffffffffffffffffffffff168152602001908152602001600020600084815260200190815260200160002054905080600660008773ffffffffffffffffffffffffffffffffffffffff1673ffffffffffffffffffffffffffffffffffffffff168152602001908152602001600020600084815260200190815260200160002081905550816007600083815260200190815260200160002081905550505b6007600084815260200190815260200160002060009055600660008573ffffffffffffffffffffffffffffffffffffffff1673ffffffffffffffffffffffffffffffffffffffff16815260200190815260200160002060008381526020019081526020016000206000905550505050565b60006001600880549050611d1991906130fe565b9050600060096000848152602001908152602001600020549050600060088381548110611d6f577f4e487b7100000000000000000000000000000000000000000000000000000000600052603260045260246000fd5b906000526020600020015490508060088381548110611db7577f4e487b7100000000000000000000000000000000000000000000000000000000600052603260045260246000fd5b906000526020600020018190555081600960008381526020019081526020016000208190555060096000858152602001908152602001600020600090556008805480611e2c577f4e487b7100000000000000000000000000000000000000000000000000000000600052603160045260246000fd5b6001900381819060005260206000200160009055905550505050565b6000611e538361091d565b905081600660008573ffffffffffffffffffffffffffffffffffffffff1673ffffffffffffffffffffffffffffffffffffffff168152602001908152602001600020600083815260200190815260200160002081905550806007600084815260200190815260200160002081905550505050565b600073ffffffffffffffffffffffffffffffffffffffff168273ffffffffffffffffffffffffffffffffffffffff161415611f37576040517f08c379a0000000000000000000000000000000000000000000000000000000008152600401611f2e90612e35565b60405180910390fd5b611f4081611135565b15611f80576040517f08c379a0000000000000000000000000000000000000000000000000000000008152600401611f7790612d55565b60405180910390fd5b611f8c60008383611844565b6001600360008473ffffffffffffffffffffffffffffffffffffffff1673ffffffffffffffffffffffffffffffffffffffff1681526020019081526020016000206000828254611fdc9190613077565b92505081905550816002600083815260200190815260200160002060006101000a81548173ffffffffffffffffffffffffffffffffffffffff021916908373ffffffffffffffffffffffffffffffffffffffff160217905550808273ffffffffffffffffffffffffffffffffffffffff16600073ffffffffffffffffffffffffffffffffffffffff167fddf252ad1be2c89b69c2b068fc378daa952ba7f163c4a11628f55a4df523b3ef60405160405180910390a45050565b600080823b905060008111915050919050565b8280546120b4906131e8565b90600052602060002090601f0160209004810192826120d6576000855561211d565b82601f106120ef57805160ff191683800117855561211d565b8280016001018555821561211d579182015b8281111561211c578251825591602001919060010190612101565b5b50905061212a919061212e565b5090565b5b8082111561214757600081600090555060010161212f565b5090565b600061215e61215984612fd4565b612fa3565b90508281526020810184848401111561217657600080fd5b6121818482856131a6565b509392505050565b600061219c61219784613004565b612fa3565b9050828152602081018484840111156121b457600080fd5b6121bf8482856131a6565b509392505050565b6000813590506121d681613361565b92915050565b6000813590506121eb81613378565b92915050565b6000813590506122008161338f565b92915050565b6000815190506122158161338f565b92915050565b600082601f83011261222c57600080fd5b813561223c84826020860161214b565b91505092915050565b600082601f83011261225657600080fd5b8135612266848260208601612189565b91505092915050565b60008135905061227e816133a6565b92915050565b60006020828403121561229657600080fd5b60006122a4848285016121c7565b91505092915050565b600080604083850312156122c057600080fd5b60006122ce858286016121c7565b92505060206122df858286016121c7565b9150509250929050565b6000806000606084860312156122fe57600080fd5b600061230c868287016121c7565b935050602061231d868287016121c7565b925050604061232e8682870161226f565b9150509250925092565b6000806000806080858703121561234e57600080fd5b600061235c878288016121c7565b945050602061236d878288016121c7565b935050604061237e8782880161226f565b925050606085013567ffffffffffffffff81111561239b57600080fd5b6123a78782880161221b565b91505092959194509250565b600080604083850312156123c657600080fd5b60006123d4858286016121c7565b92505060206123e5858286016121dc565b9150509250929050565b6000806040838503121561240257600080fd5b6000612410858286016121c7565b92505060206124218582860161226f565b9150509250929050565b60006020828403121561243d57600080fd5b600061244b848285016121f1565b91505092915050565b60006020828403121561246657600080fd5b600061247484828501612206565b91505092915050565b6000806040838503121561249057600080fd5b600083013567ffffffffffffffff8111156124aa57600080fd5b6124b685828601612245565b925050602083013567ffffffffffffffff8111156124d357600080fd5b6124df85828601612245565b9150509250929050565b6000602082840312156124fb57600080fd5b60006125098482850161226f565b91505092915050565b61251b81613132565b82525050565b61252a81613144565b82525050565b600061253b82613034565b612545818561304a565b93506125558185602086016131b5565b61255e81613350565b840191505092915050565b60006125748261303f565b61257e818561305b565b935061258e8185602086016131b5565b61259781613350565b840191505092915050565b60006125ad8261303f565b6125b7818561306c565b93506125c78185602086016131b5565b80840191505092915050565b60006125e0602b8361305b565b91507f455243373231456e756d657261626c653a206f776e657220696e646578206f7560008301527f74206f6620626f756e64730000000000000000000000000000000000000000006020830152604082019050919050565b600061264660328361305b565b91507f4552433732313a207472616e7366657220746f206e6f6e20455243373231526560008301527f63656976657220696d706c656d656e74657200000000000000000000000000006020830152604082019050919050565b60006126ac601c8361305b565b91507f4552433732313a20746f6b656e20616c7265616479206d696e746564000000006000830152602082019050919050565b60006126ec60248361305b565b91507f4552433732313a207472616e7366657220746f20746865207a65726f2061646460008301527f72657373000000000000000000000000000000000000000000000000000000006020830152604082019050919050565b600061275260198361305b565b91507f4552433732313a20617070726f766520746f2063616c6c6572000000000000006000830152602082019050919050565b6000612792602c8361305b565b91507f4552433732313a206f70657261746f7220717565727920666f72206e6f6e657860008301527f697374656e7420746f6b656e00000000000000000000000000000000000000006020830152604082019050919050565b60006127f860388361305b565b91507f4552433732313a20617070726f76652063616c6c6572206973206e6f74206f7760008301527f6e6572206e6f7220617070726f76656420666f7220616c6c00000000000000006020830152604082019050919050565b600061285e602a8361305b565b91507f4552433732313a2062616c616e636520717565727920666f7220746865207a6560008301527f726f2061646472657373000000000000000000000000000000000000000000006020830152604082019050919050565b60006128c460298361305b565b91507f4552433732313a206f776e657220717565727920666f72206e6f6e657869737460008301527f656e7420746f6b656e00000000000000000000000000000000000000000000006020830152604082019050919050565b600061292a60208361305b565b91507f4552433732313a206d696e7420746f20746865207a65726f20616464726573736000830152602082019050919050565b600061296a602c8361305b565b91507f4552433732313a20617070726f76656420717565727920666f72206e6f6e657860008301527f697374656e7420746f6b656e00000000000000000000000000000000000000006020830152604082019050919050565b60006129d060298361305b565b91507f4552433732313a207472616e73666572206f6620746f6b656e2074686174206960008301527f73206e6f74206f776e00000000000000000000000000000000000000000000006020830152604082019050919050565b6000612a36602f8361305b565b91507f4552433732314d657461646174613a2055524920717565727920666f72206e6f60008301527f6e6578697374656e7420746f6b656e00000000000000000000000000000000006020830152604082019050919050565b6000612a9c60218361305b565b91507f4552433732313a20617070726f76616c20746f2063757272656e74206f776e6560008301527f72000000000000000000000000000000000000000000000000000000000000006020830152604082019050919050565b6000612b0260248361305b565b91507f496d61676520776974682074686973206861736820616c72656164792065786960008301527f73747321000000000000000000000000000000000000000000000000000000006020830152604082019050919050565b6000612b6860318361305b565b91507f4552433732313a207472616e736665722063616c6c6572206973206e6f74206f60008301527f776e6572206e6f7220617070726f7665640000000000000000000000000000006020830152604082019050919050565b6000612bce602c8361305b565b91507f455243373231456e756d657261626c653a20676c6f62616c20696e646578206f60008301527f7574206f6620626f756e647300000000000000000000000000000000000000006020830152604082019050919050565b612c308161319c565b82525050565b6000612c4282846125a2565b915081905092915050565b6000612c5982856125a2565b9150612c6582846125a2565b91508190509392505050565b6000602082019050612c866000830184612512565b92915050565b6000608082019050612ca16000830187612512565b612cae6020830186612512565b612cbb6040830185612c27565b8181036060830152612ccd8184612530565b905095945050505050565b6000602082019050612ced6000830184612521565b92915050565b60006020820190508181036000830152612d0d8184612569565b905092915050565b60006020820190508181036000830152612d2e816125d3565b9050919050565b60006020820190508181036000830152612d4e81612639565b9050919050565b60006020820190508181036000830152612d6e8161269f565b9050919050565b60006020820190508181036000830152612d8e816126df565b9050919050565b60006020820190508181036000830152612dae81612745565b9050919050565b60006020820190508181036000830152612dce81612785565b9050919050565b60006020820190508181036000830152612dee816127eb565b9050919050565b60006020820190508181036000830152612e0e81612851565b9050919050565b60006020820190508181036000830152612e2e816128b7565b9050919050565b60006020820190508181036000830152612e4e8161291d565b9050919050565b60006020820190508181036000830152612e6e8161295d565b9050919050565b60006020820190508181036000830152612e8e816129c3565b9050919050565b60006020820190508181036000830152612eae81612a29565b9050919050565b60006020820190508181036000830152612ece81612a8f565b9050919050565b60006020820190508181036000830152612eee81612af5565b9050919050565b60006020820190508181036000830152612f0e81612b5b565b9050919050565b60006020820190508181036000830152612f2e81612bc1565b9050919050565b6000602082019050612f4a6000830184612c27565b92915050565b6000608082019050612f656000830187612c27565b8181036020830152612f778186612569565b90508181036040830152612f8b8185612569565b9050612f9a6060830184612c27565b95945050505050565b6000604051905081810181811067ffffffffffffffff82111715612fca57612fc9613321565b5b8060405250919050565b600067ffffffffffffffff821115612fef57612fee613321565b5b601f19601f8301169050602081019050919050565b600067ffffffffffffffff82111561301f5761301e613321565b5b601f19601f8301169050602081019050919050565b600081519050919050565b600081519050919050565b600082825260208201905092915050565b600082825260208201905092915050565b600081905092915050565b60006130828261319c565b915061308d8361319c565b9250827fffffffffffffffffffffffffffffffffffffffffffffffffffffffffffffffff038211156130c2576130c1613294565b5b828201905092915050565b60006130d88261319c565b91506130e38361319c565b9250826130f3576130f26132c3565b5b828204905092915050565b60006131098261319c565b91506131148361319c565b92508282101561312757613126613294565b5b828203905092915050565b600061313d8261317c565b9050919050565b60008115159050919050565b60007fffffffff0000000000000000000000000000000000000000000000000000000082169050919050565b600073ffffffffffffffffffffffffffffffffffffffff82169050919050565b6000819050919050565b82818337600083830152505050565b60005b838110156131d35780820151818401526020810190506131b8565b838111156131e2576000848401525b50505050565b6000600282049050600182168061320057607f821691505b60208210811415613214576132136132f2565b5b50919050565b60006132258261319c565b91507fffffffffffffffffffffffffffffffffffffffffffffffffffffffffffffffff82141561325857613257613294565b5b600182019050919050565b600061326e8261319c565b91506132798361319c565b925082613289576132886132c3565b5b828206905092915050565b7f4e487b7100000000000000000000000000000000000000000000000000000000600052601160045260246000fd5b7f4e487b7100000000000000000000000000000000000000000000000000000000600052601260045260246000fd5b7f4e487b7100000000000000000000000000000000000000000000000000000000600052602260045260246000fd5b7f4e487b7100000000000000000000000000000000000000000000000000000000600052604160045260246000fd5b6000601f19601f8301169050919050565b61336a81613132565b811461337557600080fd5b50565b61338181613144565b811461338c57600080fd5b50565b61339881613150565b81146133a357600080fd5b50565b6133af8161319c565b81146133ba57600080fd5b5056fea264697066735822122026cf0f74e9a76a43d8d9524063680c79f14e15449fb703754931809059c58a8964736f6c63430008000033",
  "immutableReferences": {},
  "source": "// SPDX-License-Identifier: MIT\npragma solidity >=0.4.22 <0.9.0;\n\nimport \"@openzeppelin/contracts/token/ERC721/extensions/ERC721Enumerable.sol\";\nimport \"@openzeppelin/contracts/token/ERC721/IERC721Receiver.sol\";\nimport \"./NftImageListing.sol\";\n\n\ncontract NftImage is ERC721Enumerable {\n    constructor() ERC721(\"NftImage\", \"NFTIMAGE\") {}\n\n    mapping(string => bool) _hashExists;\n\n    Image[] public images;\n\n    uint256 public imageCount = 0;\n\n    struct Image {\n        uint256 id;\n        string hash;\n        string description;\n        uint256 price; // in WEI\n    }\n\n    modifier isOwner(uint _imageId) {\n        require(ownerOf(_imageId) == msg.sender, \"only owner can call this function\");\n        _;\n    }\n\n    // modifier to auto check valid image id\n    modifier validId(uint256 _id) {\n        require(_id >= 0 && _id < imageCount);\n        _;\n    }\n\n    event imagePutUpForSale(uint id, uint price);\n\n\n    function mint(string memory _hash, string memory _description) public {\n        // make sure hash exists\n        require(bytes(_hash).length > 0);\n\n\n        // make sure an image with this hash doesn't already exist\n        require(!_hashExists[_hash], \"Image with this hash already exists!\");\n\n        // mint this nft and assign it to the sender\n        _safeMint(msg.sender, imageCount);\n\n        // track the image\n        images.push(Image(imageCount, _hash, _description, 0));\n        _hashExists[_hash] = true;\n\n        // increase total image count\n        imageCount++;\n    }\n\n    // function putImageUpForSale(uint _imageId, uint _price, address _address) validId(_imageId) isOwner(_imageId) public {\n    //     NftImageListing candidateContract = NftImageListing(_address);\n\n    //     Image memory img = images[_imageId];\n\n    //     // make sure the image isn't already for sale\n    //     require(!img.isForSale, \"Image is already for sale!\");\n\n    //     // add this contract as approved\n    //     approve(address(this), _imageId);\n\n    //     // set the image price, isForSale = true\n    //     img.price = _price;\n    //     img.isForSale = true;\n\n    //     // put it back in the list\n    //     images[_imageId] = img;\n\n    //     // emit imagePutUpForSale\n    //     emit imagePutUpForSale(_imageId, _price);\n    // }\n\n    // function buyImage(uint _imageId) validId(_imageId) public payable {\n    //     // make sure image is on sale\n    //     Image memory img = images[_imageId];\n    //     require(img.isForSale, \"Trying to buy an image that's not on sale!\");\n\n    //     // make sure msg.sender isn't the current owner\n    //     address payable owner = payable(ownerOf(_imageId));\n    //     require(owner != msg.sender, \"Trying to buy an image you already own!\");\n\n    //     // make sure msg.value is == image.price\n    //     require(msg.value >= img.price);\n\n    //     // transfer msg.value to img owner\n    //     owner.transfer(msg.value);\n\n    //     // make sure this contract is approved on this token **TO REMOVE **\n    //     require(getApproved(_imageId) == address(this), \"Contract isn't set as approved!\");\n\n    //     // transfer image from owner to new owner (also clear's contract's approval)\n    //     safeTransferFrom(owner, msg.sender, _imageId);\n\n    //     // set image back to not on sale\n    //     img.isForSale = false;\n    //     images[_imageId] = img;\n    // }\n}\n",
  "sourcePath": "/home/gary/Documents/shopifty/src/contracts/NftImage.sol",
  "compiler": {
    "name": "solc",
    "version": "0.8.0+commit.c7dfd78e.Emscripten.clang"
  },
  "schemaVersion": "3.4.1",
  "updatedAt": "2021-05-09T05:29:22.056Z",
  "networkType": "ethereum",
  "devdoc": {
    "kind": "dev",
    "methods": {
      "approve(address,uint256)": {
        "details": "See {IERC721-approve}."
      },
      "balanceOf(address)": {
        "details": "See {IERC721-balanceOf}."
      },
      "getApproved(uint256)": {
        "details": "See {IERC721-getApproved}."
      },
      "isApprovedForAll(address,address)": {
        "details": "See {IERC721-isApprovedForAll}."
      },
      "name()": {
        "details": "See {IERC721Metadata-name}."
      },
      "ownerOf(uint256)": {
        "details": "See {IERC721-ownerOf}."
      },
      "safeTransferFrom(address,address,uint256)": {
        "details": "See {IERC721-safeTransferFrom}."
      },
      "safeTransferFrom(address,address,uint256,bytes)": {
        "details": "See {IERC721-safeTransferFrom}."
      },
      "setApprovalForAll(address,bool)": {
        "details": "See {IERC721-setApprovalForAll}."
      },
      "supportsInterface(bytes4)": {
        "details": "See {IERC165-supportsInterface}."
      },
      "symbol()": {
        "details": "See {IERC721Metadata-symbol}."
      },
      "tokenByIndex(uint256)": {
        "details": "See {IERC721Enumerable-tokenByIndex}."
      },
      "tokenOfOwnerByIndex(address,uint256)": {
        "details": "See {IERC721Enumerable-tokenOfOwnerByIndex}."
      },
      "tokenURI(uint256)": {
        "details": "See {IERC721Metadata-tokenURI}."
      },
      "totalSupply()": {
        "details": "See {IERC721Enumerable-totalSupply}."
      },
      "transferFrom(address,address,uint256)": {
        "details": "See {IERC721-transferFrom}."
      }
    },
    "version": 1
  },
  "userdoc": {
    "kind": "user",
    "methods": {},
    "version": 1
  }
}